S01300006669726D776172655F6170702E733139E4
S325080000000000022015400008AD1D0008B51D0008BD1D0008C51D0008CD1D000800000000E9
S32508000020000000000000000000000000D51D0008E31D000800000000F11D0008FF1D000876
S3250800004065400008654000086540000865400008654000086540000865400008654000082A
S32508000060654000080F1E00081D1E00086540000865400008654000086540000865400008EC
S32508000080654000086540000865400008654000082D1E000865400008654000086540000844
S325080000A0654000086540000865400008654000086540000865400008411E00086540000810
S325080000C06540000865400008654000086540000865400008551E00086540000865400008DC
S325080000E065400008654000086540000865400008654000086540000865400008654000088A
S32508000100654000086540000865400008654000086540000865400008654000086540000869
S32508000120654000086540000865400008654000086540000865400008654000086540000849
S32508000140691E00086540000865400008654000086540000865400008654000086540000847
S325080001606540000865400008654000086540000865400008654000086540000800000000B6
S30D0800018065400008654000080F
S3250800019010B5054C237833B9044B13B10448AFF300800123237010BDD801002000000000A6
S325080001B048B7000808B5034B1BB103490348AFF3008008BD00000000DC01002048B70008C1
S325080001D001F0FF01102A2BDB10F0070F08D010F8013B013A8B422DD010F0070F42B3F6D1C7
S325080001F0F0B441EA012141EA014122F007047FF000070023F0E80256083C85EA010586EA74
S32508000210010685FA47F5A3FA87F586FA47F6A5FA87F68EB9EED1F0BC01F0FF0102F007026E
S3250800023032B110F8013B013A83EA010313B1F8D10020704701387047002D06BF35460338D1
S32508000250073815F0010F07D1013015F4807F02BF013015F4C03F0130F0BC0138704700BF95
S32508000270034613F8012B002AFBD1181A0138704781F0004102E000BF83F0004330B54FEAA1
S3250800029041044FEA430594EA050F08BF90EA020F1FBF54EA000C55EA020C7FEA645C7FEA8F
S325080002B0655C00F0E2804FEA5454D4EB5555B8BF6D420CDD2C4480EA020281EA030382EAF9
S325080002D0000083EA010180EA020281EA0303362D88BF30BD11F0004F4FEA01314FF4801C81
S325080002F04CEA113102D0404261EB410113F0004F4FEA03334CEA133302D0524263EB43034F
S3250800031094EA050F00F0A780A4F10104D5F1200E0DDB02FA0EFC22FA05F2801841F10001BC
S3250800033003FA0EF2801843FA05F359410EE0A5F120050EF1200E012A03FA0EFC28BF4CF010
S32508000350020C43FA05F3C01851EBE37101F0004507D54FF0000EDCF1000C7EEB00006EEBDA
S325080003700101B1F5801F1BD3B1F5001F0CD349085FEA30004FEA3C0C04F101044FEA445272
S3250800039012F5800F80F09A80BCF1004F08BF5FEA500C50F1000041EB045141EA050130BDD7
S325080003B05FEA4C0C404141EB0101013C28BFB1F5801FE9D291F0000F04BF01460020B1FA46
S325080003D081F308BF2033A3F10B03B3F120020CDA0C3208DD02F1140CC2F10C0201FA0CF035
S325080003F021FA02F10CE002F11402D8BFC2F1200C01FA02F120FA0CFCDCBF41EA0C019040B3
S32508000410E41AA2BF01EB0451294330BD6FEA04041F3C1CDA0C340EDC04F11404C4F1200205
S3250800043020FA04F001FA02F340EA030021FA04F345EA030130BDC4F10C04C4F1200220FA8B
S3250800045002F001FA04F340EA0300294630BD21FA04F0294630BD94F0000F83F4801306BF44
S3250800047081F480110134013D4EE77FEA645C18BF7FEA655C29D094EA050F08BF90EA020FA9
S3250800049005D054EA000C04BF1946104630BD91EA030F1EBF0021002030BD5FEA545C05D153
S325080004B04000494128BF41F0004130BD14F580043CBF01F5801130BD01F0004545F0FE4168
S325080004D041F470014FF0000030BD7FEA645C1ABF194610467FEA655C1CBF0B46024650EA9D
S325080004F0013406BF52EA033591EA030F41F4002130BD00BF90F0000F04BF0021704730B5D2
S325080005104FF4806404F132044FF000054FF0000150E700BF90F0000F04BF0021704730B5E2
S325080005304FF4806404F1320410F0004548BF40424FF000013EE700BF42004FEAE2014FEAC2
S3250800055031014FEA02701FBF12F07F4393F07F4F81F06051704732F07F4208BF704793F0F0
S325080005707F4F04BF41F40021704730B54FF4607401F0004521F000411CE700BF50EA01023C
S3250800059008BF704730B54FF000050AE050EA010208BF704730B511F0004502D5404261EB21
S325080005B041014FF4806404F132045FEA915C3FF4D8AE4FF003025FEADC0C18BF03325FEAD0
S325080005D0DC0C18BF033202EBDC02C2F1200300FA03FC20FA02F001FA03FE40EA0E0021FA14
S325080005F002F11444BDE600BF70B54FF0FF0C4CF4E06C1CEA11541DBF1CEA135594EA0C0FE7
S3250800061095EA0C0F00F0DEF82C4481EA030621EA4C5123EA4C5350EA013518BF52EA033569
S3250800063041F4801143F4801338D0A0FB02CE4FF00005E1FB02E506F00042E0FB03E54FF058
S325080006500006E1FB03569CF0000F18BF4EF0010EA4F1FF04B6F5007F64F5407404D25FEA94
S325080006704E0E6D4146EB060642EAC62141EA55514FEAC52040EA5E504FEACE2EB4F1FD0C58
S3250800069088BFBCF5E06F1ED8BEF1004F08BF5FEA500E50F1000041EB045170BD06F0004668
S325080006B046EA010140EA020081EA0301B4EB5C04C2BFD4EB0C0541EA045170BD41F480118C
S325080006D04FF0000E013C00F3AB8014F1360FDEBF002001F0004170BDC4F10004203C35DACA
S325080006F00C341BDC04F11404C4F1200500FA05F320FA04F001FA05F240EA020001F000426D
S3250800071021F0004110EBD37021FA04F642EB06015EEA430E08BF20EAD37070BDC4F10C0443
S32508000730C4F1200500FA04F320FA05F001FA04F240EA020001F0004110EBD37041F1000101
S325080007505EEA430E08BF20EAD37070BDC4F1200500FA05F24EEA020E20FA04F301FA05F28B
S3250800077043EA020321FA04F001F0004121FA04F220EA020000EBD3705EEA430E08BF20EA33
S32508000790D37070BD94F0000F0FD101F00046400041EB010111F4801F08BF013CF7D041EA19
S325080007B0060195F0000F18BF704703F00046520043EB030313F4801F08BF013DF7D043EA94
S325080007D00603704794EA0C0F0CEA135518BF95EA0C0F0CD050EA410618BF52EA4306D1D178
S325080007F081EA030101F000414FF0000070BD50EA410606BF1046194652EA430619D094EAE7
S325080008100C0F02D150EA013613D195EA0C0F05D152EA03361CBF104619460AD181EA0301B8
S3250800083001F0004141F0FE4141F470014FF0000070BD41F0FE4141F4780170BD70B54FF037
S32508000850FF0C4CF4E06C1CEA11541DBF1CEA135594EA0C0F95EA0C0F00F0A7F8A4EB0504D4
S3250800087081EA030E52EA03354FEA013100F088804FEA03334FF0805545EA131343EA12638D
S325080008904FEA022245EA111545EA10654FEA00260EF000419D4208BF964244F1FD0404F599
S325080008B0407402D25B084FEA3202B61A65EB03055B084FEA32024FF480104FF4002CB6EBE7
S325080008D0020E75EB030E22BFB61A754640EA0C005B084FEA3202B6EB020E75EB030E22BF04
S325080008F0B61A754640EA5C005B084FEA3202B6EB020E75EB030E22BFB61A754640EA9C00A5
S325080009105B084FEA3202B6EB020E75EB030E22BFB61A754640EADC0055EA060E18D04FEAE1
S32508000930051545EA16754FEA06164FEAC30343EA52734FEAC2025FEA1C1CC0D111F4801FCC
S325080009500BD141EA00014FF000004FF0004CB6E711F4801F04BF01430020B4F1FD0C88BF4A
S32508000970BCF5E06F3FF6AFAEB5EB030C04BFB6EB020C5FEA500C50F1000041EB045170BD12
S325080009900EF0004E4EEA113114EB5C04C2BFD4EB0C0541EA045170BD41F480114FF0000E03
S325080009B0013C90E645EA060E8DE60CEA135594EA0C0F08BF95EA0C0F3FF43BAF94EA0C0FA2
S325080009D00AD150EA01347FF434AF95EA0C0F7FF425AF104619462CE795EA0C0F06D152EA03
S325080009F003353FF4FDAE1046194622E750EA410618BF52EA43067FF4C5AE50EA41047FF450
S32508000A100DAF52EA43057FF4EBAE12E74FF0FF3C06E000BF4FF0010C02E000BF4FF0010C1B
S32508000A304DF804CD4FEA410C7FEA6C5C4FEA430C18BF7FEA6C5C1BD001B050EA410C0CBF4D
S32508000A5052EA430C91EA030F02BF90EA020F0020704710F1000F91EA030F58BF994208BFE7
S32508000A7090422CBFD8176FEAE37040F0010070474FEA410C7FEA6C5C02D150EA013C07D13F
S32508000A904FEA430C7FEA6C5CD6D152EA033CD3D05DF8040B704700BF8446104662468C4646
S32508000AB01946634600E000BF01B5FFF7B7FF002848BF10F1000F01BD4DF808EDFFF7F4FFEF
S32508000AD00CBF012000205DF808FB00BF4DF808EDFFF7EAFF34BF012000205DF808FB00BF71
S32508000AF04DF808EDFFF7E0FF94BF012000205DF808FB00BF4DF808EDFFF7CEFF94BF0120AD
S32508000B1000205DF808FB00BF4DF808EDFFF7C4FF34BF012000205DF808FB00BF4FEA410CBC
S32508000B307FEA6C5C02D150EA013C0AD14FEA430C7FEA6C5C02D152EA033C02D14FF0000028
S32508000B5070474FF0010070474FEA410212F5001215D211D56FF47873B3EB625212D94FEAA3
S32508000B70C12343F0004343EA505311F0004F23FA02F018BF404270474FF00000704750EA8E
S32508000B90013005D111F0004008BF6FF0004070474FF00000704700BF53B94AB9002908BF1E
S32508000BB000281CBF4FF0FF314FF0FF3000F088B9ADF1080C6DE904CE00F006F8DDF804E085
S32508000BD0DDE9022304B070472DE9F047089D8E4604468846002B4AD18A42174662D9B2FA6D
S32508000BF082F64EB1C6F1200301FA06F820FA03F3B74043EA0808B4404FEA174E1FFA87FC1B
S32508000C10B8FBFEF1230C0EFB118843EA084301FB0CF29A4209D9FB1801F1FF3080F0EA8005
S32508000C309A4240F2E78002393B449A1AA3B2B2FBFEF00EFB102243EA024300FB0CFC9C4532
S32508000C5009D9FB1800F1FF3280F0D6809C4540F2D3803B44023840EA0140A3EB0C03002151
S32508000C701DB1F3400022C5E90032BDE8F0878B4205D90DB1C5E9000100210846F5E7B3FA27
S32508000C9083F1002946D1734502D3824200F20581841A6EEB030201209046002DE5D0C5E936
S32508000CB00048E2E7002A00F09080B2FA82F6002E40F0A4808A1A030C4FEA174E80B2BCB244
S32508000CD00121B2FBFEFC0EFB1C2243EA024304FB0CF29A4207D9FB180CF1FF3802D29A42C4
S32508000CF000F2E080C4469B1AB3FBFEF20EFB123340EA034302FB04F49C4207D9FB1802F1B0
S32508000D10FF3002D29C4200F2CA8002461B1B42EA0C40A5E7C1F120068B4022FA06F71F43F8
S32508000D300EFA01F420FA06F32EFA06FE4FEA1749234300FA01F81FFA87FCBEFBF9F01C0C01
S32508000D5009FB10EE44EA0E4400FB0CFEA64502FA01F209D93C1900F1FF3A80F09C80A6453C
S32508000D7040F2998002383C44A4EB0E041FFA83FEB4FBF9F309FB13444EEA044403FB0CFC99
S32508000D90A44508D93C1903F1FF3E80F08280A4457FD9023B3C4443EA0040A4EB0C04A0FBCE
S32508000DB002EC64457346E14662D35FD05DB1B8EB030264EB090404FA06F622FA01F31E43BD
S32508000DD0CC40C5E9006400214FE7B1FBF2FC010C41EA0E4180B240EA01423B4638463C463F
S32508000DF0B846BE462026B1FBF7F1A2EB080241EA0C4166E7014618E710462CE7C6F1200215
S32508000E102EFA02F3B740B14020FA02F24FEA174E0A43B3FBFEF8BCB20EFB1833110C41EA08
S32508000E30034108FB04F9B04089454FEA104380B23ED9791808F1FF3C01D289451FD8A1EBD4
S32508000E500901B1FBFEF909FB04F80EFB191192B242EA0142424529D2BA1809F1FF31C4D2CD
S32508000E704245C2D2A9F102013A44BEE7F0459DD2BEEB02036CEB070C0138E14696E7A7EB4E
S32508000E9009094944A8F1020CB1FBFEF909FB04F8DBE773467FE7504666E70846FDE63B44D7
S32508000EB0023A33E7ACF1020C3B441CE749469CE7A1EB0901C446B1FBFEF909FB04F8C4E791
S32508000ED0704700BF80B400AF064B00221A60064B00221A60054B00221A6000BFBD465DF8BE
S32508000EF0047B7047F8010020FC0100200002002080B400AF00BFBD465DF8047B7047000016
S32508000F1080B400AF214B1B680133204A13601F4B19681F4BA3FB0123DA0813469B0013448C
S32508000F305B00CA1A002A02D11A4B01221A701A4B1B680133184A1360174B1A68174BA3FB70
S32508000F5002135B09642101FB03F3D31A002B02D1134B01221A70134B1B680133114A1360AA
S32508000F70104B1A68104BA3FB02139B094FF47A7101FB03F3D31A002B02D10C4B01221A70B5
S32508000F9000BFBD465DF8047B704700BFF8010020CDCCCCCCF4010020FC0100201F85EB51CB
S32508000FB0F501002000020020D34D6210F601002080B485B000AF78607A6813461B019B1A36
S32508000FD0FB6000E000BFFB685A1EFA60002BF9D100BF00BF1437BD465DF8047B7047000078
S32508000FF080B586B000AF3B1D00221A605A609A60DA601A6101237B600023BB600123FB60A0
S325080010103B1D1946034804F0E7F800BF1837BD4680BD00BF0010024080B586B000AF3B1D0C
S3250800103000221A605A609A60DA601A6101237B601123BB600023FB6000233B613B1D19464B
S32508001050034804F0C9F800BF1837BD4680BD00BF0010024080B500AFFFF7DEFF0022012118
S32508001070024804F06DFA00BF80BD00BF0010024080B500AFFFF7D0FF01220121024804F074
S325080010905FFA00BF80BD00BF0010024080B500AFFFF7A6FF0121034804F03AFA0346184611
S325080010B080BD00BF0010024080B582B000AFFFF7D1FF4FF4F070FFF77BFFFFF7D9FF3C20AB
S325080010D0FFF776FFFFF7E2FF0346FB716420FFF76FFFFB79002B0ED10C4B01221A700C4B3A
S325080010F01B78002B05D10B4808F0B2FB084B01221A70002306E0084808F0AAFB034B0022E0
S325080011101A70012318460837BD4680BD040200201402002060B7000884B7000880B582B001
S3250800113000AF7860391D4FF6FF730122034806F047FE7B6818460837BD4680BD3803002039
S3250800115080B500AF02F088FF00F06EF800F0CAFA00F0D6F800F00AF900F03EF900F050F9F9
S3250800117000F0A8F900F0DCF900F03EFA00F066FA00F08EFA02F0B2FE02F01BFD234802F002
S3250800119069F90221224802F041FD02F055FE0346002B03D11F4808F05BFB02E01E4808F090
S325080011B057FBFFF781FF01F05FF801F057FF02F0E9F802F09FFEFFF785FEFFF799FE174BF0
S325080011D01B78002B10D002F079FB02F073FE01F0DDF801F079FF02F0E5F800F0E1FF00F0CC
S325080011F01DFF0E4B00221A700D4B1B78002B04D002F020FC0A4B00221A700A4B1B78002BA4
S32508001210DDD0084B00221A70D9E700BF38B9000840B90008C4B70008E8B70008F40100204C
S32508001230F5010020F601002080B594B000AF07F1200330220021184608F0EAFB07F10C036B
S3250800125000221A605A609A60DA601A610023BB60294B1B6C284A43F080531364264B1B6C4B
S3250800127003F08053BB60BB6800237B60234B1B68224A43F480431360204B1B6803F48043DC
S325080012907B607B6809233B624FF480337B6201237B630223BB634FF48003FB6308233B64A3
S325080012B04FF4A8737B640223BB640723FB6407F12003184604F076F90346002B01D000F0F5
S325080012D0DDFA0F23FB6002233B6100237B614FF4A053BB614FF48053FB6107F10C030521DB
S325080012F0184604F0D7FB0346002B01D000F0C6FA00BF5037BD4680BD003802400070004007
S3250800131080B500AF174B184A1A60164B06225A60144B00229A60134B0022DA60114B4FF476
S3250800133010221A610F4B4FF400125A610D4B00221A760C4B00225A760A4B00229A76094B4A
S325080013500022DA76074B00221A77064B00225A77044802F0F3FE0346002B01D000F08EFAC8
S3250800137000BF80BD180200200064004080B500AF174B184A1A60164B06225A60144B00228F
S325080013909A60134B0022DA60114B4FF410221A610F4B4FF400125A610D4B00221A760C4B64
S325080013B000225A760A4B00229A76094B0022DA76074B00221A77064B00225A77044802F049
S325080013D0BDFE0346002B01D000F058FA00BF80BD400200200068004080B500AF064B074A21
S325080013F01A60054804F058FE0346002B01D000F045FA00BF80BD00BF6802002000080650A7
S3250800141080B586B000AF3B1D00221A605A609A60DA601A6100233B60244B254A1A60234BB3
S3250800143000225A60214B7F229A60204BFF22DA601E4B00221A611D4B00225A611B4B002212
S325080014509A611A4804F052FE0346002B01D000F015FA00233B7100237B710023BB71002339
S325080014703B6100237B613B1D012219460F4804F0BEFE0346002B01D000F000FA01233B70D4
S3250800149001237B700123BB700023FB703B4601221946064804F045FF0346002B01D000F084
S325080014B0EDF900BF1837BD4680BD00BF780200200028004080B500AF174B184A1A60164B96
S325080014D04FF482725A60144B00229A60124B0022DA60114B00221A610F4B00225A610E4B40
S325080014F04FF400729A610C4B1022DA610A4B00221A62094B00225A62074B00229A62064B74
S325080015100A22DA62044805F031F80346002B01D000F0B4F900BF80BD9802002000300140D2
S3250800153080B58AB000AF07F1200300221A605A603B1D00221A605A609A60DA601A615A61E6
S325080015509A61274B274A1A60254BA7225A60244B00229A60224B40F2E732DA60204B002218
S325080015701A611F4B00229A611D4805F0D1FD0346002B01D000F082F900233B6200237B62B3
S3250800159007F120031946164806F03AFB0346002B01D000F073F960237B600023BB600023CA
S325080015B0FB6000237B613B1D002219460C4805F0B7FF0346002B01D000F060F93B1D0422CF
S325080015D01946074805F0ACFF0346002B01D000F055F9034800F0ECFA00BF2837BD4680BD9D
S325080015F0F00200200008004080B500AF114B124A1A60104B4FF4E1325A600E4B00229A607D
S325080016100C4B0022DA600B4B00221A61094B0C225A61084B00229A61064B0022DA6105485E
S3250800163006F07EFB0346002B01D000F027F900BF80BD00BF380300200010014080B500AF7D
S32508001650114B124A1A60104B4FF496425A600E4B00229A600C4B0022DA600B4B00221A61EF
S32508001670094B0C225A61084B00229A61064B0022DA61054806F054FB0346002B01D000F02A
S32508001690FDF800BF80BD00BF800300200044004080B500AF114B124A1A60104B4FF49642C9
S325080016B05A600E4B00229A600C4B0022DA600B4B00221A61094B0C225A61084B00229A618A
S325080016D0064B0022DA61054806F02AFB0346002B01D000F0D3F800BF80BD00BFC803002030
S325080016F00048004080B58AB000AF07F1140300221A605A609A60DA601A6100233B615A4BAE
S325080017101B6B594A43F010031363574B1B6B03F010033B613B690023FB60534B1B6B524A1A
S3250800173043F080031363504B1B6B03F08003FB60FB680023BB604C4B1B6B4B4A43F00103E3
S325080017501363494B1B6B03F00103BB60BB6800237B60454B1B6B444A43F002031363424BC9
S325080017701B6B03F002037B607B6800233B603E4B1B6B3D4A43F0080313633B4B1B6B03F008
S3250800179008033B603B6801220121384803F0D8FE00224FF48041364803F0D2FE00224FF488
S325080017B08071344803F0CCFE01220121324803F0C7FE18237B614FF40413BB610123FB615D
S325080017D007F1140319462C4803F006FD01237B610123BB610023FB6100233B6207F1140385
S325080017F01946224803F0F8FC4FF480437B610123BB610023FB6100233B6207F1140319464C
S325080018101B4803F0E9FC4FF480737B610123BB610023FB6100233B6207F114031946154813
S3250800183003F0DAFC01237B611123BB610023FB6100233B6207F1140319460F4803F0CCFCB2
S3250800185000220621092003F0FEFB092003F017FC002206210A2003F0F6FB0A2003F00FFC5E
S3250800187000BF2837BD4680BD0038024000040240000C0240000002400010024080B400AF67
S3250800189072B600BF00BFFDE780B483B000AF00237B60104B5B6C0F4A43F4804353640D4B08
S325080018B05B6C03F480437B607B6800233B60094B1B6C084A43F080531364064B1B6C03F098
S325080018D080533B603B6800BF0C37BD465DF8047B704700BF0038024080B58CB000AF786018
S325080018F007F11C0300221A605A609A60DA601A617B681B684B4A93423ED14B4B1B68013382
S32508001910494A1360484B1B68012B0DD10023BB61464B1B6C454A43F000731364434B1B6C6B
S3250800193003F00073BB61BB6900237B613F4B1B6B3E4A43F0020313633C4B1B6B03F0020399
S325080019507B617B694FF44073FB6102233B6200237B620323BB620923FB6207F11C03194653
S32508001970334803F039FC00220421142003F06BFB142003F084FB50E07B681B682D4A93424A
S325080019904BD100233B61294B1B6C284A43F080631364264B1B6C03F080633B613B69224BD9
S325080019B01B680133204A13601F4B1B68012B0DD10023FB601D4B1B6C1C4A43F0007313648E
S325080019D01A4B1B6C03F00073FB60FB680023BB60164B1B6B154A43F002031363134B1B6BC3
S325080019F003F00203BB60BB684FF44053FB6102233B6200237B620323BB620923FB6207F1DB
S32508001A101C0319460A4803F0E7FB00220421402003F019FB402003F032FB00BF3037BD46AC
S32508001A3080BD00BF006400401004002000380240000402400068004080B485B000AF78605C
S32508001A507B681B680B4A93420DD10023FB600A4B5B6B094A43F040035363074B5B6B03F0D7
S32508001A704003FB60FB6800BF1437BD465DF8047B704700BF000806500038024080B586B0AD
S32508001A9000AF786007F1080300221A605A609A60DA607B681B680C4A934211D10223BB6061
S32508001AB04FF400737B6107F10803184604F012FA0346002B01D0FFF7E1FE044B01221A600F
S32508001AD000BF1837BD4680BD002800403C0E474280B58AB000AF786007F1140300221A60BE
S32508001AF05A609A60DA601A617B681B68194A93422BD100233B61184B5B6C174A43F4805371
S32508001B105364154B5B6C03F480533B613B690023FB60114B1B6B104A43F0020313630E4BFE
S32508001B301B6B03F00203FB60FB6838237B610223BB610023FB6103233B6205237B6207F194
S32508001B5014031946054803F047FB00BF2837BD4680BD00BF00300140003802400004024021
S32508001B7080B584B000AF78607B681B680E4A934215D10023FB600D4B1B6C0C4A43F00403F1
S32508001B9013640A4B1B6C03F00403FB60FB68002200211E2003F057FA1E2003F070FA00BFFD
S32508001BB01037BD4680BD00BF000800400038024080B588B000AF786007F10C0300221A6068
S32508001BD05A609A60DA601A617B681B68124A93421ED10023BB60114B1B6B104A43F0080340
S32508001BF013630E4B1B6B03F00803BB60BB684FF44053FB6002233B6100237B610023BB6106
S32508001C100223FB6107F10C031946054803F0E4FA00BF2037BD4680BD000800400038024089
S32508001C30000C024080B58EB000AF786007F1240300221A605A609A60DA601A617B681B68B4
S32508001C50504A934235D100233B624F4B5B6C4E4A43F0100353644C4B5B6C03F010033B623A
S32508001C703B6A0023FB61484B1B6B474A43F001031363454B1B6B03F00103FB61FB694FF4BB
S32508001C90C0637B620223BB620023FB6203233B6307237B6307F1240319463C4803F09CFA0D
S32508001CB000220521252003F0CEF9252003F0E7F963E07B681B68364A93422CD10023BB616D
S32508001CD0314B1B6C304A43F4003313642E4B1B6C03F40033BB61BB6900237B612A4B1B6B24
S32508001CF0294A43F001031363274B1B6B03F001037B617B690C237B620223BB620023FB6229
S32508001D1003233B6307237B6307F1240319461F4803F062FA31E07B681B681E4A93422CD1F4
S32508001D3000233B61184B1B6C174A43F480231364154B1B6C03F480233B613B690023FB60EB
S32508001D50114B1B6B104A43F0020313630E4B1B6B03F00203FB60FB684FF440637B620223FE
S32508001D70BB620023FB6203233B6307237B6307F124031946084803F02FFA00BF3837BD46C1
S32508001D9080BD00BF00100140003802400000024000440040004800400004024080B400AFE7
S32508001DB000BFFDE780B400AF00BFFDE780B400AF00BFFDE780B400AF00BFFDE780B400AFED
S32508001DD000BFFDE780B400AF00BFBD465DF8047B704780B400AF00BFBD465DF8047B7047E2
S32508001DF080B400AF00BFBD465DF8047B704780B500AF02F083F9FFF783F800BF80BD80B5A1
S32508001E1000AF082003F0B6FB00BF80BD80B500AF102003F0AFFB00BF80BD000080B500AF9C
S32508001E30024802F00AFE00BF80BD00BF1802002080B500AF024805F083FA00BF80BD00BFF0
S32508001E50F002002080B500AF024806F045F800BF80BD00BF3803002080B500AF024802F0BB
S32508001E70ECFD00BF80BD00BF4002002080B400AF01231846BD465DF8047B704780B582B0E4
S32508001E9000AF7860396007F015FE034616221A604FF0FF3318460837BD4680BD80B582B04A
S32508001EB000AF78604FF0FF317868FFF7E7FF00BFFDE780B586B000AFF860B9607A60002327
S32508001ED07B610AE0AFF300800146BB685A1CBA60CAB21A707B6901337B617A697B689A4266
S32508001EF0F0DB7B6818461837BD4680BD80B586B000AFF860B9607A6000237B6109E0BB68B9
S32508001F105A1CBA601B781846FFF708F97B6901337B617A697B689A42F1DB7B681846183739
S32508001F30BD4680BD80B483B000AF78604FF0FF3318460C37BD465DF8047B704780B483B04E
S32508001F5000AF786039603B684FF400525A60002318460C37BD465DF8047B704780B483B098
S32508001F7000AF7860012318460C37BD465DF8047B704780B485B000AFF860B9607A600023E3
S32508001F9018461437BD465DF8047B704780B586B000AF7860144A154BD31A7B617B693B61F3
S32508001FB0134B1B68002B02D1114B124A1A60104B1A687B6813443A699A4207D207F07AFD15
S32508001FD003460C221A604FF0FF3309E0084B1B68FB60074B1A687B681344054A1360FB6834
S32508001FF018461837BD4680BD0000022000040000140400204816002080B400AF064BD3F8FB
S325080020108830054A43F47003C2F8883000BFBD465DF8047B704700BF00ED00E080B500AFC2
S3250800203000F002F800BF80BD80B500AF00F00CF80346184601F0A9FF00F058F8034618469D
S3250800205001F0B2FF00BF80BD80B582B000AF0123FB71234B1B785B00DAB2214B1A7001F04F
S32508002070C1FF0346FB711E4B1A78FB791343DBB203F00703DAB21A4B1A70194B1B78002BE1
S325080020901AD1184B1B8801339AB2164B1A80154B1B88B3F57A7F09D3124B4FF47A721A8010
S325080020B0114B02221A70104B1B7814E00E4B01221A700D4B1B780EE0094B1B78072B08D145
S325080020D0084B00221A80084B00221A70064B1B7801E0054B1B7818460837BD4680BD00BF90
S325080020F004000020180400201A04002080B582B000AF0123FB71264B1B785B00DAB2244B24
S325080021101A7001F077FF0346FB71214B1A78FB791343DBB203F00703DAB21D4B1A701C4BC4
S325080021301B78002B20D11B4B1B8801339AB2194B1A80184B1B88B3F57A7F0FD3154B4FF41F
S325080021507A721A80134B1B881946134807F018FB124B02221A70114B1B7814E00F4B0122AB
S325080021701A700E4B1B780EE0094B1B78072B08D1084B00221A80094B00221A70074B1B78F7
S3250800219001E0064B1B7818460837BD4680BD00BF050000201C0400200CB800081E0400204D
S325080021B080B582B000AF0023FB710023BB7100237B717B1D184601F0D6FE7B79002B06D14D
S325080021D01A4B00221A701A4807F042FB2AE07B79012B07D1FB1D184601F0B3FEBB1D1846EA
S325080021F001F09DFEBB79012B0FD1FB790A2B01D8FB7900E00023FB71FB791A4692001344D3
S325080022105B00DAB2094B1A7002E0084B00221A70064B1B78184601F074FE044B1B78184615
S3250800223001F0D1FE0837BD4680BD00BF1F04002020B8000880B582B000AF0346FB80FB8802
S32508002250102B03D1064807F003FB05E0FB88082B02D1044807F0FCFA00BF0837BD4680BD29
S3250800227008B9000820B9000880B500AF024801F031FA00BF80BD00BFAD23000880B588B04C
S3250800229000AF03463960FB713B68002B01D1012355E00023FB774EE0FA7F2B4913465B00C6
S325080022B013449B000B441B78FA799A4240D1FA7F254913465B0013449B000B4404331B6836
S325080022D0FB603B68197AFA7F1F4813465B0013449B00034408331B788B4228BF0B46DBB222
S325080022F03B74FA7F184913465B0013449B000B440A331B787B760023BB763B6859683B7C12
S325080023101A4607F10C030533184607F000FCFA7F0D4913465B0013449B000B4409331B781C
S3250800233007F10C021146184601F080F9034606E0FB7F0133FB77FB7F032BADD9012318465B
S325080023502037BD4680BD00BF64B9000880B483B000AF7860044A7B68136000BF0C37BD464D
S325080023705DF8047B704700BF2004002080B483B000AF7860044A7B68136000BF0C37BD461A
S325080023905DF8047B704700BF2404002080B400AF00BFBD465DF8047B7047000080B586B0F2
S325080023B000AF03463960FB713B68002B5ED00023FB7557E0FB7D304A1B0113440D331B7804
S325080023D0FA799A424BD13B681A68FB7D2A491B010B4408331B681A40FB7D27491B010B448E
S325080023F004331B689A423AD1FB7D234A1B0113441B783B723B680533FB603B681A79FB7DA2
S325080024101D491B010B440C331B78934228BF1346DBB23B74FB7D184A1B0113441B78042B9B
S3250800243006D0FB7D144A1B0113441B78062B0AD1124B1B68002B11D0104B1B6807F10802F4
S32508002450104698470AE00E4B1B68002B10D00C4B1B6807F108021046984709E008E0FB7DFE
S325080024700133FB75FB7D022BA4D902E000BF00E000BF1837BD4680BD94B90008240400200C
S325080024902004002080B582B000AF0023FB710CE0FB794FF40A7202FB03F3134A1344184611
S325080024B000F0FCF8FB790133FB71FB79012BEFD90D4B00221A700C4B04229A700A4B052297
S325080024D0DA70094B012283F82822074B062283F82A22054BFF2283F82B220448FFF746FF57
S325080024F000BF0837BD4680BD280400200126000880B586B000AF00F087FB38610023FB754D
S3250800251068E0FB7D4FF40A7202FB03F3354A1344FB60FB685B78013B032B51D801A252F844
S3250800253023F000BF4525000871250008792500088F250008FB68D3F820323A69D31A4A2BB4
S3250800255040D9F86800F0AAF8274B1B68002B39D0254B1B68FA68127801211046984731E0E2
S32508002570F86800F015F932E0FB68D3F80C323A69D31A952B28D9F86800F090F824E0FB68D1
S3250800259093F81032002B21D0184B1B68002B1DD0FB6806337B60FB68B3F806323B8100239A
S325080025B0BB72124B1B68FA681278391D10469847FB68002283F81022F86800F06FF805E0AB
S325080025D000BF04E000BF02E000BF00E000BFFB7D0133FB75FB7D012B93D900BF00BF183742
S325080025F0BD4680BD280400207C0800207808002080B584B000AF78607B68002B26D07B6816
S325080026105B68002B24D00023FB731BE0FB7B124A4FF40A7101FB03F3134402331A787B68AB
S325080026301B789A420BD1FB7B4FF40A7202FB03F3094A13447968184600F058F909E0FB7B80
S325080026500133FB73FB7B012BE0D902E000BF00E000BF1037BD4680BD2804002080B483B0E5
S3250800267000AF7860044A7B68136000BF0C37BD465DF8047B704700BF7808002080B483B0BB
S3250800269000AF7860044A7B68136000BF0C37BD465DF8047B704700BF7C08002080B483B097
S325080026B000AF78607B6800225A707B680022A3F806227B680022A3F808227B68012283F893
S325080026D00A227B680022C3F80C227B68002283F810227B680022C3F814227B680022A3F87A
S325080026F018227B680022A3F81A227B68012283F81C227B68002283F81D227B680022C3F868
S3250800271020227B68002283F8242200BF0C37BD465DF8047B704780B588B000AF78600846C1
S3250800273011461A460346FB700B46BB7013467B70FB7803F00F03DBB243F03003DBB23B72AB
S32508002750BB787B727B78BB720323FB7708E0FB7F20333B44FF2203F8182CFB7F0133FB77CF
S32508002770FB7F072BF3D97B68DB783B7407F108037B6108233B767B68DB7807F1100211468C
S325080027901846FFF77BFD00BF2037BD4680BD000080B58AB000AF78607B68B3F81A227B6856
S325080027B0B3F818329A420FD37868FFF777FF4E4B1B68002B00F093804B4B1B687A6812782D
S325080027D00021104698478BE07B6893F81C3203F00F03DBB243F02003DBB23B737B68B3F8AD
S325080027F018227B68B3F81A32D31ABB84BB8C072B02D8BB8CDBB200E0072387F823307B6895
S32508002810D3F814327A68B2F81A22991897F8232007F10C030133184607F079F997F823305A
S32508002830013387F827300BE097F8273028333B44FF2203F81C2C97F82730013387F8273071
S3250800285097F82730072BEFD97B68DB783B7507F10C03BB6108233B777B68DB7807F1140250
S3250800287011461846FFF70AFD7B68B3F81A2297F823309BB213449AB27B68A3F81A227B684F
S3250800289093F81C320133DAB27B6883F81C227B6893F81C320F2B03D97B68002283F81C2255
S325080028B07B6893F81D32013BDAB27B6883F81D227B68B3F81A227B68B3F818329A420FD378
S325080028D07868FFF7EBFE084B1B68002B08D0064B1B687A68127800211046984700E000BF0D
S325080028F02837BD4680BD00BF7C08002080B584B000AF786039603B685B681B78FB73FB7B52
S3250800291023F00F03BB73BB7B302B25D0302B2CDC202B18D0202B28DC002B02D0102B09D0CA
S3250800293023E03B6859683B681B7A1A46786800F021F81BE03B6859683B681B7A1A467868BA
S3250800295000F048F812E03B6859683B681B7A1A46786800F092F809E03B6859683B681B7A5C
S325080029701A46786800F0FCF800E000BF00BF1037BD4680BD80B586B000AFF860B96013464C
S32508002990FB71BB681B7803F00F03FB75FB7D072B1AD8FB7D0133DBB2FA799A4216D3FB6812
S325080029B0981DBB680133FA7D194607F0B0F8FB7D9AB2FB68A3F80622FB68012283F810225B
S325080029D0FB6804225A7002E000BF00E000BF1837BD4680BD80B586B000AFF860B9601346D3
S325080029F0FB71FB79072B44D9BB681B781BB21B021BB203F470631AB2BB6801331B781BB2D0
S32508002A1013431BB2FB82FB8AB3F5805F09D30A2300220221F868FFF77EFEF868FFF73EFE3A
S32508002A3028E0FB68FA8AA3F80622FB680022A3F80822FB68012283F80A22FB68981DBB6814
S32508002A5002330622194607F062F8FB680622A3F808220A2300220021F868FFF75CFEFB6878
S32508002A7003225A7000F0D0F80246FB68C3F80C2200E000BF1837BD4680BD80B586B000AFB5
S32508002A90F860B9601346FB71FB685B78032B5ED1BB681B7803F00F03FB75FB6893F80A32FA
S32508002AB0FA7D9A4255D1FB68B3F80622FB68B3F80832D31ABB82BB8A072B02D8BB8ADBB2B4
S32508002AD000E00723FB74FB7C0133DBB2FA799A4241D3FB68B3F808321A46FB681344981DAD
S32508002AF0BB680133FA7C194607F011F8FB68B3F80822FB7C9BB213449AB2FB68A3F80822C5
S32508002B10FB6893F80A320133DAB2FB6883F80A22FB6893F80A320F2B03D9FB68002283F863
S32508002B300A2200F071F80246FB68C3F80C22FB68B3F80822FB68B3F806329A420CD3FB68C2
S32508002B50012283F81022FB6804225A7004E000BF02E000BF00E000BF1837BD4680BD0000C2
S32508002B7080B586B000AFF860B9601346FB71FB685B78012B3BD1FB79022B3AD9BB681B780F
S32508002B9003F00F03FB75BB6801331B78BB75FB7D022B1DD0022B2EDC002B02D0012B10D0B6
S32508002BB029E0BB7D002B04D1FB68FF2283F81D2203E0FB68BA7D83F81D22FB6802225A70F0
S32508002BD01CE000F021F80246FB68C3F8202215E0F868FFF763FD0B4B1B68002B0DD0094B4A
S32508002BF01B68FA68127801211046984705E000BF04E000BF02E000BF00E000BF1837BD4618
S32508002C1080BD00BF7C08002080B500AF01F08AFA0346184680BD80B487B000AFF860B9602E
S32508002C307A60BB689B78DB009BB2BA68D2781344FB82BB681B797B755AE0FB8ADB089BB268
S32508002C503B75FB8ADBB203F00703FB74FA7C7B7D9A4203D2FB7C0133DBB200E07B7DBB74CA
S32508002C70BB7C012202FA03F3DBB2013B7B747B68DAB2BB7C012101FA03F3DBB2013BDBB223
S32508002C9013403B743B7DFA68134419787A7CF87CBB7CC31A013302FA03F3DBB2DB43DAB237
S32508002CB03B7DF86803440A40D2B21A703B7DFA68134419783A7CF87CBB7CC31A013302FACF
S32508002CD003F3DAB23B7DF86803440A43D2B21A70BB7C7A6822FA03F37B607A7DBB7CD31A79
S32508002CF07B753B7D01339BB2DB009BB20733FB827B7D002BA1D100BF00BF1C37BD465DF8F0
S32508002D10047B704780B489B000AFF860B9607A60BB689B78DB009BB2BA68D27813447B83D9
S32508002D307B8BDBB203F00703FB777B8BDB089BB2BB77BB681B797B773FE0FB7FC3F108030A
S32508002D503B773A7F7B7F9A4201D97B7F3B773B7F012202FA03F3013B7B61BB7FFA681344B4
S32508002D701978FB7F7A6902FA03F3DBB2DB43DAB2BB7FF86803440A40D2B21A70BB7FFA6849
S32508002D90134419787A687B691A40FB7F02FA03F3DAB2BB7FF86803440A43D2B21A703B7F1F
S32508002DB07A6822FA03F37B607A7F3B7FD31A7B77BB7F0133BB770023FB777B7F002BBCD1AD
S32508002DD000BF00BF2437BD465DF8047B704780B487B000AF786039603B689B78DB009BB205
S32508002DF03A68D2781344FB823B681B797B7500233B610023FB7340E0FB8ADB089BB2BB737B
S32508002E10FB8ADBB203F007037B737A7B7B7D9A4203D27B7B0133DBB200E07B7D3B733B7B06
S32508002E30012202FA03F3DBB2013BFB72BB7B7A6813441B7819467A7B3B7BD31A013341FAC1
S32508002E5003F35AB297F90B3013405BB2BB72BA7AFB7B02FA03F33A6913433B61FA7B3B7B9E
S32508002E701344FB737A7D3B7BD31A7B75BB7B01339BB2DB009BB20733FB827B7D002BBBD1A0
S32508002E903B6918461C37BD465DF8047B704780B487B000AF786039603B689B78DB009BB2C8
S32508002EB03A68D2781344BB81BB89DB089BB2FB75BB89DBB203F00703BB753B681B797B756C
S32508002ED000233B610023FB732DE0BB7DC3F10803BB73BA7B7B7D9A4201D97B7DBB73BB7B13
S32508002EF0012202FA03F3DBB2013BFB72FB7D7A6813441B781A46BB7D1A41FB7A13401A460A
S32508002F10FB7B02FA03F33A6913433B61FA7BBB7B1344FB737A7DBB7BD31A7B75FB7D013370
S32508002F30FB750023BB757B7D002BCED13B6918461C37BD465DF8047B704780B584B000AFF3
S32508002F50F860B9607A60BB689B79012B05D17A68B968F868FFF75FFE04E07A68B968F868D2
S32508002F70FFF7D0FE00BF1037BD4680BD80B582B000AF786039603B689B79012B05D1396848
S32508002F907868FFF724FF034604E039687868FFF77EFF034618460837BD4680BD80B485B06A
S32508002FB000AF78600B46FB70FF23FB730023BB7320E0BB7B7A6813441A78FB7B5340FB7357
S32508002FD000237B7310E097F90F30002B06DAFB7B5B00DBB283F01D03FB7302E0FB7B5B00E6
S32508002FF0FB737B7B01337B737B7B072BEBD9BB7B0133BB73BA7BFB789A42DAD3FB7BDB43E4
S32508003010DBB218461437BD465DF8047B7047000080B586B000AF0346FB71FB790D4AD35C05
S32508003030002B12D0FB793B73FB79DB000A4A13443B61FB79074AD35C3B7507F10C02FB798F
S3250800305011461846FFF71AF900E000BF1837BD4680BD00BF68BA00088008002080B582B06E
S3250800307000AF0023FB710DE0FB79DB00104A9818FB79104AD35C1A46002106F0C9FCFB7901
S325080030900133FB71FB79032BEED9082200210A4806F0BEFC094B00221A70094B00221A60CC
S325080030B00848FFF753F900BF0837BD4680BD00BF8008002068BA0008A0080020AC080020F5
S325080030D0A8080020F532000880B586B000AF324B1B680133304A13602F4B19682F4BA3FB85
S325080030F001239A0813469B001344CA1A002A2ED12B4B1B780E2B04D8294B1B780133DBB2AE
S3250800311000E00023264A1370254B1B783B6107F110031946002000F047F8224A07F10803D4
S3250800313001321068186012791A7107F1080305211846FFF733FF0346FB75FB7D7B603B1D25
S325080031501946012000F030F80020FFF761FF124B1968124BA3FB0123DA0813469B00134419
S325080031705B00CA1A002A02D10120FFF751FF0A4B19680A4BA3FB0123DA0813469B00134474
S325080031905B00CA1A002A02D10320FFF741FF00BF1837BD4680BD00BFB0080020CDCCCCCC66
S325080031B0AC0800208008002080B584B000AF03463960FB71FB79162B29D83B68002B26D095
S325080031D0FA791346DB009B1A134A1344BB600023FB60BB681B79082B03D83B681B78FB60D2
S325080031F00AE0BB681B79102B03D83B681B88FB6002E03B681B68FB60BB685B78DB00074AD4
S325080032101344FA68B9681846FFF797FE00E000BF1037BD4680BD00BFC4B9000880080020BB
S3250800323080B584B000AF03463960FB71FB79162B02D83B68002B01D1012327E0FA791346E4
S32508003250DB009B1A134A1344FB60FB685B78022B01D001231AE0F9680F48FFF787FEB86014
S32508003270FB681B79082B04D8BB68DAB23B681A700BE0FB681B79102B04D8BB689AB23B6843
S325080032901A8002E03B68BA681A60002318461037BD4680BDC4B90008A008002080B582B099
S325080032B000AF03463960FB710D4B1B68002B02D13B6800221A7000F035FF03461A46084BAB
S325080032D01B68D31AB3F5FA6F02D93B6802221A703B6801221A70012318460837BD4680BDD2
S325080032F0A808002080B588B000AF78607B68002B3CD07B681B78022B39D17B681B7A082B7A
S3250800331028BF0823FB777B685B68FA7F1946194806F0FDFB00F006FF03461A46164B1A60C5
S3250800333016491448FFF722FEB86115491148FFF71DFE78610F4A07F10C0392E8030018608F
S325080033500433198002330A0C1A7007F10C0307211846FFF723FE0346FB74BB69DBB2FA7C27
S325080033709A4204D0044B00221A6000E000BF2037BD4680BDA0080020A80800200ABA0008FA
S3250800339003BA000880B500AFFFF77CF80348FFF765F90348FFF772F900BF80BDC1330008B9
S325080033B01D34000880B500AFFFF7A2F800BF80BD80B584B000AF03463960FB713B68002BF2
S325080033D01CD03B681B68002B1AD0FB79002B02D0012B03D015E00023FB7302E00123FB733E
S325080033F000BF094B1B68002B0BD0074B1B683A6811683A689288F87B984702E000BF00E094
S3250800341000BF1037BD4680BDB408002080B584B000AF03460A46FB711346BB71FB79002B2B
S3250800343002D0012B03D00FE00023FB7302E00123FB7300BF064B1B68002B05D0044B1B6844
S32508003450B979FA7B104698471037BD4680BD00BFB808002080B584B000AF78607B68002B4E
S3250800347001D10123D8E07B681B79012B01D90123D2E07B681B79FB73FB7B694A4FF4C361B8
S3250800349001FB03F3134403331B78002B11D0FB7B002B01D1634B00E0634B184601F06CF88E
S325080034B0FB7B5F4A4FF4C36101FB03F3134401221A70FB7B5A4A4FF4C36101FB03F31344A8
S325080034D001221A70FB7B564A4FF4C36101FB03F31344013300221A70FB7B514A4FF4C36103
S325080034F001FB03F31344023300221A70FB7B4C4A4FF4C36101FB03F31344033300221A70E6
S32508003510FB7B474A4FF4C36101FB03F3134403F2146300221A60FB7B414A4FF4C36101FB6A
S3250800353003F3134403F2044300221A80FB7B3C4A4FF4C36101FB03F3134403F2064300221C
S325080035501A80FB7B364A4FF4C36101FB03F3134403F5816300221A80FB7B314A4FF4C3611D
S3250800357001FB03F3134403F20C6300221A80FB7B2B4A4FF4C36101FB03F3134403F20E63C3
S3250800359000221A80FB7B264A4FF4C36101FB03F3134403F5C26300221A80FB7B184600F01E
S325080035B09DFAFB7B002B01D11E4B00E01E4B184600F09EFF0346002B01D001232CE0FB7B5B
S325080035D0002B01D1174B00E0174B0221184601F00EFA0346002B01D001231DE0FB7B002BAB
S325080035F001D1104B00E0104B0121184601F0FFF9FB7B0B4A4FF4C36101FB03F3134402223D
S325080036101A70FB7B064A4FF4C36101FB03F31344033301221A70002318461037BD4680BDA1
S32508003630BC080020180200204002002080B584B000AF03463960FB71FB79012B0DD83B685E
S32508003650002B0AD0FB79224A4FF4C36101FB03F3134403331B78002B01D1012334E0FB7945
S325080036704FF4C36202FB03F303F58163184A13440433FB60FB68B3F804321F2B01D901231E
S3250800369022E0FB68B3F800321B01FA68134410223968184606F03BFAFB68B3F80032013325
S325080036B09BB203F01F039AB2FB68A3F8002272B600BFFB68B3F8043201339AB2FB68A3F875
S325080036D0042262B600BF002318461037BD4680BDBC08002080B483B000AF7860044A7B68C4
S325080036F0136000BF0C37BD465DF8047B704700BFEC14002080B592B000AF78607B687B640A
S325080037107B6C1B68384A934214BF01230023DBB287F8433007F1180307F120020021786CFF
S3250800373001F043F80346002B5AD13B6ABB603B6BDBB23B73BB6A002B14BF01230023DBB208
S325080037507B75FB6A002B14BF01230023DBB2BB753B6B082B28BF08231A4607F1180107F1A0
S3250800377008030533184606F0D2F997F843304FF4C36202FB03F31D4A13440433FB63FB6BB3
S32508003790B3F804343F2B1ED8FB6BB3F800341B01FA6B134407F108011022184606F0B7F974
S325080037B0FB6BB3F8003401339BB203F03F039AB2FB6BA3F80024FB6BB3F8043401339AB2B6
S325080037D0FB6BA3F804240A4B1B68002B09D0084B1B6807F1080197F843201046984700E0E8
S325080037F000BF4837BD4680BD00640040BC080020EC14002080B483B000AF786000BF0C3795
S32508003810BD465DF8047B704780B487B000AF78607B687B617B691B68264A934214BF0123A8
S325080038300023DBB2FB747B691B689B69FB60FB681A0CFB7CD0B2204A4FF4C36101FB03F340
S325080038501344013302461A70FB681A0EFB7CD0B2194A4FF4C36101FB03F3134402330246D9
S325080038701A70FB6803F00403002B1CD0FB7C124A4FF4C36101FB03F3134404221A70FB7C82
S325080038900D494FF4C36203FB02F20A4402F214621268013208494FF4C36000FB03F30B44FE
S325080038B003F214631A6000BF1C37BD465DF8047B704700BF00640040BC08002080B590B0A8
S325080038D000AF002387F83F30A3E097F83F30564A4FF4C36101FB03F3134403331B78002B45
S325080038F000F08F8097F83F304F4A4FF4C36101FB03F313441B78022B40F0838097F83F3073
S325080039104FF4C36202FB03F303F58163464A13440433BB63BB6BB3F80432002B73D072B679
S3250800393000BFBB6BB3F802321B01BA6BD11807F124031022184606F0EAF8BB6BB3F80232EF
S3250800395001339BB203F01F039AB2BB6BA3F80222BB6BB3F80432013B9AB2BB6BA3F804220C
S3250800397062B600BF97F83F30002B01D12F4B00E02F4B7B6397F83130002B04D17B6AFB6075
S3250800399000237B6103E07B6A3B6104237B6197F83230002B01D1002300E00223BB6197F8E2
S325080039B02830082B28BF0823DBB2FB61002387F82030FA6907F12403591D3B1D184606F0CD
S325080039D0A6F83B463A1D07F10C01786B00F01DFE0346002B18D097F83F3013494FF4C36242
S325080039F003FB02F20A44013212780132D0B20E4A4FF4C36101FB03F31344013302461A70E9
S32508003A1002E000BF00E000BF97F83F30013387F83F3097F83F30012B7FF657AF00BF00BF05
S32508003A304037BD4680BD00BFBC080020180200204002002080B582B000AF0023FB713FE0AE
S32508003A50FB79234A4FF4C36101FB03F313441B78042B31D1FB79002B01D11E4B00E01E4BD0
S32508003A703B60386801F0F0F9386800F041FD0346002B22D1FB79164A4FF4C36101FB03F3B1
S32508003A90134402221A70FB79114A4FF4C36101FB03F31344013300221A70FB790C4A4FF497
S32508003AB0C36101FB03F31344023300221A700221386800F09CFF00E000BFFB790133FB7199
S32508003AD0FB79012BBCD900BF00BF0837BD4680BDBC080020180200204002002080B58EB0A3
S32508003AF000AF0346FB71FB79002B01D1134B00E0134B7B63FB79002B01D1002300E00E23B4
S32508003B103B6200237B620123BB620023FB6000233B6100237B610023BB610023FB6101238B
S32508003B30FB620E233B6307F10C031946786B00F001FC00BF3837BD4680BD00BF180200209E
S32508003B504002002080B582B000AF78607868FFF7D1FD00BF0837BD4680BD80B582B000AFFF
S32508003B7078607868FFF746FE00BF0837BD4680BD80B582B000AF78607868FFF73BFE00BF3B
S32508003B900837BD4680BD80B582B000AF78607868FFF730FE00BF0837BD4680BD80B582B0F1
S32508003BB000AF78607868FFF72FFE00BF0837BD4680BD80B400AF00BFBD465DF8047B7047EF
S32508003BD080B584B000AF0346FB71FB79072B01D9002314E0FB790C4A52F83320FB790A4935
S32508003BF0DB000B449B881946104601F091FC0346FB73FB7B012B0CBF01230023DBB21846D1
S32508003C101037BD4680BD00BF6CBA000880B586B000AF78600B46FB700023FB7563E0FA7D17
S32508003C3013465B0013445B001A467B6813441B78FB73FB7B002B02D100233B6104E0FB7BD8
S32508003C50012B4CD104233B613B69002B0CD1FA7D13465B0013445B001A467B6813445A8835
S32508003C70284B1B685A632EE03B69042B0DD1FA7D13465B0013445B001A467B68134459885C
S32508003C90204B1A680B4693631DE03B69082B0DD1FA7D13465B0013445B001A467B681344A9
S32508003CB05988184B1A680B46D3630CE0FA7D13465B0013445B001A467B6813445988114BF9
S32508003CD01A680B46136439690E4803F071FA0346002B05D1FB7B0C4A0221D15400E000BF29
S32508003CF0FB7D0133FB75FA7DFB789A4297D300224FF48041054801F023FC00231846183707
S32508003D10BD4680BDF0020020F0140020000C024080B485B000AF03460A46FB711346BB711F
S32508003D30FB79002B02D10023FB6004E0FB79012B2DD10423FB60BB79642B01D96423BB7121
S32508003D50BB7940F2E73202FB03F3144AA2FB03235B09BB60FB68002B04D1114B1B68BA68CF
S32508003D705A6315E0FB68042B04D10D4B1A68BB6893630DE0FB68082B04D1094B1A68BB68C8
S32508003D90D36305E0064B1A68BB68136400E000BF1437BD465DF8047B704700BF1F85EB5166
S32508003DB0F002002080B500AF00220121024801F0C7FB00BF80BD00BF0004024080B500AFC9
S32508003DD001220121024801F0BBFB00BF80BD00BF0004024080B582B000AF0346FB71F91DAD
S32508003DF064230122064802F04AFC0346002B14BF01230023DBB218460837BD4680BD00BFBE
S32508003E109802002080B582B000AFFF23FB71FFF7C9FF0520FFF7DEFFF91D64230122054863
S32508003E3002F071FDFFF7CAFFFB7918460837BD4680BD00BF9802002080B582B000AF094B11
S32508003E5000221A70FFF7BAFF00F010F878607B68054A934201D1002300E00123184608377C
S32508003E70BD4680BDF21400201540EF0080B582B000AF3B1D00210A461A800A469A70FFF7B1
S32508003E9091FF9F20FFF7A6FF391D64230322084802F039FDFFF792FF3B791A047B791B0236
S32508003EB01343BA79134318460837BD4680BD00BF9802002080B500AF074B1B78002B09D0E2
S32508003ED0FFF7A0FF034603F00103002B02D1024B00221A7000BF80BDF214002080B400AFF3
S32508003EF0034B02221A7000BFBD465DF8047B7047F314002080B400AF00BFBD465DF8047BBB
S32508003F10704780B582B000AF0346FB71FB7919460020FFF7FDFE00BF0837BD4680BD80B5AA
S32508003F3082B000AF78607B68002B01D1012304E079681020FFF774F9034618460837BD4665
S32508003F5080BD80B582B000AF78607B68002B01D1012304E079680B20FFF762F9034618462C
S32508003F700837BD4680BD80B582B000AF78607B68002B01D1012304E079681020FFF78EF940
S32508003F90034618460837BD4680BD80B582B000AF0346FB71FB1D19460220FFF705F9002362
S32508003FB018460837BD4680BD80B582B000AF0346FB71FB1D19460320FFF7F6F8002318463C
S32508003FD00837BD4680BD80B582B000AF0346FB71FB1D19460620FFF7E7F800231846083747
S32508003FF0BD4680BD80B500AF0120FFF7E9FD0346184680BD80B500AF0220FFF7E1FD03467B
S32508004010184680BDDFF834D0FDF7F6FF0C480D490D4A002302E0D458C4500433C4188C42FC
S32508004030F9D30A4A0A4C002301E013600432A242FBD305F045FDFDF783F87047000002200E
S3250800405000000020D801002034BE0008D801002044160020FEE7000080B500AF0E4B1B6817
S325080040700D4A43F4007313600B4B1B680A4A43F480631360084B1B68074A43F48073136030
S32508004090032000F0D5FF0F2000F008F8FDF7FCFB0023184680BD00BF003C024080B582B0AF
S325080040B000AF7860124B1A68124B1B7819464FF47A73B3FBF1F3B2FBF3F3184600F0EDFF9E
S325080040D00346002B01D001230EE07B680F2B0AD8002279684FF0FF3000F0B5FF064A7B6824
S325080040F01360002300E0012318460837BD4680BD000000200C0000200800002080B400AFD4
S32508004110064B1B781A46064B1B681344044A136000BFBD465DF8047B704700BF0C00002019
S32508004130F414002080B400AF034B1B681846BD465DF8047B704700BFF414002080B584B049
S3250800415000AF78607B68002B01D10123EDE07B6893F82030DBB2002B02D17868FDF7BCFB15
S325080041707B681B681A687B681B6842F001021A60FFF7D8FFF86012E0FFF7D4FF0246FB6899
S32508004190D31A0A2B0BD97B685B6A43F400327B685A627B68052283F820200123C5E07B68DA
S325080041B01B685B6803F00103002BE5D07B681B681A687B681B6822F002021A60FFF7B2FF3F
S325080041D0F86012E0FFF7AEFF0246FB68D31A0A2B0BD97B685B6A43F400327B685A627B6890
S325080041F0052283F8202001239FE07B681B685B6803F00203002BE5D17B681B7E012B08D199
S325080042107B681B681A687B681B6842F080021A6007E07B681B681A687B681B6822F080023B
S325080042301A607B685B7E012B08D17B681B681A687B681B6842F040021A6007E07B681B689C
S325080042501A687B681B6822F040021A607B689B7E012B08D17B681B681A687B681B6842F009
S3250800427020021A6007E07B681B681A687B681B6822F020021A607B68DB7E012B08D17B687D
S325080042901B681A687B681B6822F010021A6007E07B681B681A687B681B6842F010021A6004
S325080042B07B681B7F012B08D17B681B681A687B681B6842F008021A6007E07B681B681A688B
S325080042D07B681B6822F008021A607B685B7F012B08D17B681B681A687B681B6842F004027C
S325080042F01A6007E07B681B681A687B681B6822F004021A607B689A687B68DB681A437B6814
S325080043101B691A437B685B6942EA03017B685B685A1E7B681B680A43DA617B6800225A62FA
S325080043307B68012283F82020002318461037BD4680BD000080B487B000AF786039607B6828
S3250800435093F82030FB75FB7D012B03D0FB7D022B40F0BE80654B3B613B69D3F8003243F04A
S3250800437001023B69C3F800223B69D3F8003223F47C523B69C3F800223B69D3F800223B6860
S325080043905B6A1B021A433B69C3F800223B685B6903F01F03012202FA03F3FB603B69D3F8E4
S325080043B01C22FB68DB431A403B69C3F81C223B68DB69002B23D13B69D3F80C22FB68DB4305
S325080043D01A403B69C3F80C223B68DB6819043B685B689BB23A68526919433B69483243F810
S325080043F032103B689B6819043B681B689AB23B685B690A4339694833DB000B445A603B68D0
S32508004410DB69012B22D13B69D3F80C22FB681A433B69C3F80C223B681B6819043B685B6888
S325080044309BB23A68526919433B69483243F832103B689B6819043B68DB689AB23B685B6961
S325080044500A4339694833DB000B445A603B689B69002B09D13B69D3F80422FB68DB431A40D4
S325080044703B69C3F8042207E03B69D3F80422FB681A433B69C3F804223B681B69002B09D1AC
S325080044903B69D3F81422FB68DB431A403B69C3F8142207E03B69D3F81422FB681A433B69F9
S325080044B0C3F814223B681B6A012B07D13B69D3F81C22FB681A433B69C3F81C223B69D3F848
S325080044D0003223F001023B69C3F80022002306E07B685B6A43F480227B685A62012318464A
S325080044F01C37BD465DF8047B704700BF0064004080B584B000AF78607B6893F82030DBB21F
S32508004510012B2ED17B68022283F820207B681B681A687B681B6822F001021A60FFF702FEBD
S32508004530F86012E0FFF7FEFD0246FB68D31A0A2B0BD97B685B6A43F400327B685A627B68DE
S32508004550052283F82020012312E07B681B685B6803F00103002BE5D17B6800225A62002360
S3250800457006E07B685B6A43F400227B685A62012318461037BD4680BD80B584B000AF78609E
S325080045907B6893F82030DBB2022B33D17B681B681A687B681B6842F001021A60FFF7C2FDCF
S325080045B0F86012E0FFF7BEFD0246FB68D31A0A2B0BD97B685B6A43F400327B685A627B689E
S325080045D0052283F8202001231BE07B681B685B6803F00103002BE5D07B681B681A687B68F1
S325080045F01B6822F002021A607B68012283F82020002306E07B685B6A43F480127B685A62B0
S32508004610012318461037BD4680BD80B489B000AFF860B9607A603B60FB6893F82030FB77C1
S32508004630FB681B689B68BB61FB7F012B03D0FB7F022B40F0AD80BB6903F08063002B0AD1DA
S32508004650BB6903F00063002B05D1BB6903F08053002B00F09580BB691B0E03F003037B6185
S3250800467001227B699A403B681A60BB689B68002B0DD1BB681B685A05BB68DB68F9680968B2
S325080046901A437B6918331B010B441A600FE0BB685B68DA00BB689B681A43BB68DB68F96892
S325080046B009681A437B6918331B010B441A60FB681968BB681A697B6918331B010B4404339F
S325080046D01A60BB681B7D012B11D1FB681A687B6918331B01134404331B68FA68116843F426
S325080046F080727B6918331B010B4404331A607B6807331B781A067B6806331B781B041A4364
S325080047107B6805331B781B0213437A68043212781046FA68116843EA00027B691B010B4409
S3250800473003F5C6731A607B6803331B781A067B6802331B781B041A437B6801331B781B02F6
S3250800475013437A6812781046FA68116843EA00027B691B010B4403F5C4731A60FB681A683C
S325080047707B6918331B0113441B68FA68116843F001027B6918331B010B441A6000230EE0C0
S32508004790FB685B6A43F40012FB685A62012306E0FB685B6A43F48022FB685A6201231846BF
S325080047B02437BD465DF8047B704780B487B000AFF860B9607A603B60FB6893F82030FB7544
S325080047D0FB7D012B03D0FB7D022B40F00381BB68002B0ED1FB681B68DB6803F00303002B71
S325080047F016D1FB685B6A43F40012FB685A620123F7E0FB681B681B6903F00303002B07D1C3
S32508004810FB685B6A43F40012FB685A620123E8E0FB681A68BB681B331B0113441B6803F0BF
S3250800483004027B689A607B689B68002B0CD1FB681A68BB681B331B0113441B685B0DC3F31F
S325080048500A027B681A600BE0FB681A68BB681B331B0113441B68DB0823F060427B685A6065
S32508004870FB681A68BB681B331B0113441B6803F002027B68DA60FB681A68BB681B331B0148
S32508004890134404331B6803F00803002B03D07B6808221A610BE0FB681A68BB681B331B0108
S325080048B0134404331B6803F00F027B681A61FB681A68BB681B331B01134404331B681B0ABF
S325080048D0DAB27B689A61FB681A68BB681B331B01134404331B681B0C9AB27B685A61FB6859
S325080048F01A68BB681B01134403F5DC731B68DAB23B681A70FB681A68BB681B01134403F58C
S32508004910DC731B681A0A3B680133D2B21A70FB681A68BB681B01134403F5DC731B681A0C33
S325080049303B680233D2B21A70FB681A68BB681B01134403F5DC731B681A0E3B680333D2B2A9
S325080049501A70FB681A68BB681B01134403F5DE731A683B680433D2B21A70FB681A68BB6879
S325080049701B01134403F5DE731B681A0A3B680533D2B21A70FB681A68BB681B01134403F55A
S32508004990DE731B681A0C3B680633D2B21A70FB681A68BB681B01134403F5DE731B681A0EA6
S325080049B03B680733D2B21A70BB68002B08D1FB681B68DA68FB681B6842F02002DA6007E044
S325080049D0FB681B681A69FB681B6842F020021A61002306E0FB685B6A43F48022FB685A6272
S325080049F0012318461C37BD465DF8047B704780B485B000AF786039607B6893F82030FB7381
S32508004A10FB7B012B02D0FB7B022B09D17B681B6859697B681B683A680A435A61002306E046
S32508004A307B685B6A43F480227B685A62012318461437BD465DF8047B704780B58AB000AFBF
S32508004A50786000237B627B681B685B693B627B681B685B68FB617B681B689B68BB617B68AC
S32508004A701B68DB687B617B681B681B693B617B681B689B69FB603B6A03F00103002B7CD018
S32508004A90BB6903F00103002B23D07B681B6801229A60BB6903F00203002B03D07868FFF74C
S32508004AB05CF816E0BB6903F00403002B04D07B6A43F400637B620CE0BB6903F00803002BDC
S32508004AD004D07B6A43F480537B6202E0786800F06BF9BB6903F48073002B24D07B681B686F
S32508004AF04FF480729A60BB6903F40073002B03D07868FFF73DF816E0BB6903F48063002BB3
S32508004B1004D07B6A43F400537B620CE0BB6903F40063002B04D07B6A43F480437B6202E050
S32508004B30786800F04BF9BB6903F48033002B24D07B681B684FF480329A60BB6903F40033B3
S32508004B50002B03D07868FFF71EF816E0BB6903F48023002B04D07B6A43F400437B620CE072
S32508004B70BB6903F40023002B04D07B6A43F480337B6202E0786800F02BF93B6A03F00803B5
S32508004B90002B0CD07B6903F01003002B07D07B6A43F400737B627B681B681022DA603B6A21
S32508004BB003F00403002B0BD07B6903F00803002B06D07B681B680822DA60786800F012F94F
S32508004BD03B6A03F00203002B09D07B681B68DB6803F00303002B02D07868FEF7B3FF3B6A4B
S32508004BF003F04003002B0CD03B6903F01003002B07D07B6A43F480637B627B681B6810223A
S32508004C101A613B6A03F02003002B0BD03B6903F00803002B06D07B681B6808221A617868AC
S32508004C3000F0F4F83B6A03F01003002B09D07B681B681B6903F00303002B02D0786800F01B
S32508004C50DBF83B6A03F40033002B0BD0FB6903F01003002B06D07B681B6810225A607868F1
S32508004C7000F0DEF83B6A03F48033002B0BD0FB6903F00803002B06D07B681B6808225A604E
S32508004C90786800F0D7F83B6A03F40043002B7BD0FB6903F00403002B72D03B6A03F48073A8
S32508004CB0002B08D0FB6803F00103002B03D07B6A43F001037B623B6A03F40073002B08D070
S32508004CD0FB6803F00203002B03D07B6A43F002037B623B6A03F48063002B08D0FB6803F08B
S32508004CF00403002B03D07B6A43F004037B623B6A03F40063002B43D0FB6803F07003002B64
S32508004D103ED0FB6803F07003602B2BD0602B2ED8502B22D0502B2AD8402B19D0402B26D8E0
S32508004D30302B10D0302B22D8102B02D0202B05D01DE07B6A43F008037B6219E07B6A43F08A
S32508004D5010037B6214E07B6A43F020037B620FE07B6A43F040037B620AE07B6A43F080038D
S32508004D707B6205E07B6A43F480737B6200E000BF7B681B689A697B681B6822F070029A617A
S32508004D907B681B6804225A607B6A002B08D07B685A6A7B6A1A437B685A627868FEF7FEFE6E
S32508004DB000BF2837BD4680BD80B483B000AF786000BF0C37BD465DF8047B704780B483B092
S32508004DD000AF786000BF0C37BD465DF8047B704780B483B000AF786000BF0C37BD465DF856
S32508004DF0047B704780B483B000AF786000BF0C37BD465DF8047B704780B483B000AF7860F3
S32508004E1000BF0C37BD465DF8047B704780B483B000AF786000BF0C37BD465DF8047B704766
S32508004E3080B483B000AF786000BF0C37BD465DF8047B704780B483B000AF786000BF0C37E6
S32508004E50BD465DF8047B704780B485B000AF78600023FB737B6893F82030BB73BB7B012BD7
S32508004E7002D0BB7B022B03D17B6800225A6207E07B685B6A43F480227B685A620123FB73B1
S32508004E90FB7B18461437BD465DF8047B7047000080B485B000AF78607B6803F00703FB601C
S32508004EB00C4BDB68BB60BA684FF6FF031340BB60FB681A02BB68134343F0BF6343F4003391
S32508004ED0BB60044ABB68D36000BF1437BD465DF8047B704700ED00E080B400AF044BDB681B
S32508004EF01B0A03F007031846BD465DF8047B704700ED00E080B483B000AF0346FB7197F95E
S32508004F100730002B0BDBFB7903F01F02074997F907305B09012000FA02F241F8232000BFDE
S32508004F300C37BD465DF8047B704700BF00E100E080B483B000AF03463960FB7197F90730D7
S32508004F50002B0ADB3B68DAB20C4997F907301201D2B20B4483F800230AE03B68DAB20849EA
S32508004F70FB7903F00F03043B1201D2B20B441A7600BF0C37BD465DF8047B704700E100E094
S32508004F9000ED00E080B489B000AFF860B9607A60FB6803F00703FB61FB69C3F10703042BB2
S32508004FB028BF0423BB61FB690433062B02D9FB69033B00E000237B614FF0FF32BB6902FAF1
S32508004FD003F3DA43BB681A407B699A404FF0FF317B6901FA03F3D9437B680B401343184623
S32508004FF02437BD465DF8047B7047000080B582B000AF78607B68013BB3F1807F01D3012302
S325080050100FE00A4A7B68013B53600F214FF0FF30FFF78EFF054B00229A60044B07221A60DE
S32508005030002318460837BD4680BD00BF10E000E080B582B000AF78607868FFF729FF00BF18
S325080050500837BD4680BD80B586B000AF0346B9607A60FB7300237B61FFF73EFF78617A6802
S32508005070B9687869FFF78EFF024697F90F3011461846FFF75DFF00BF1837BD4680BD80B5EC
S3250800509082B000AF0346FB7197F907301846FFF731FF00BF0837BD4680BD80B582B000AFBD
S325080050B078607868FFF7A2FF034618460837BD4680BD80B584B000AF78607B689B6DFB6027
S325080050D0FFF730F8B8607B6893F83530DBB2022B08D07B6880225A657B68002283F83420FF
S325080050F0012352E07B681B681A687B681B6822F016021A607B681B685A697B681B6822F0A9
S3250800511080025A617B681B6C002B03D17B689B6C002B07D07B681B681A687B681B6822F07F
S3250800513008021A607B681B681A687B681B6822F001021A6013E0FEF7F5FF0246BB68D31ABC
S32508005150052B0CD97B6820225A657B68032283F835207B68002283F83420032315E07B688E
S325080051701B681B6803F00103002BE4D17B68DB6D3F229A40FB689A607B68012283F835209B
S325080051907B68002283F83420002318461037BD4680BD80B483B000AF78607B6893F8353054
S325080051B0DBB2022B04D07B6880225A6501230CE07B68052283F835207B681B681A687B684A
S325080051D01B6822F001021A60002318460C37BD465DF8047B7047000080B489B000AF786059
S325080051F0396000237B6100233B610023BB610023FB616BE10122FB6902FA03F37B613B6838
S325080052101B687A6913403B613A697B699A4240F05A813B685B6803F00303012B05D03B68AA
S325080052305B6803F00303022B30D17B689B68BB61FB695B00032202FA03F3DB43BA691340FA
S32508005250BB613B68DA68FB695B0002FA03F3BA691343BB617B68BA699A607B685B68BB6127
S325080052700122FB6902FA03F3DB43BA691340BB613B685B681B0903F00102FB6902FA03F311
S32508005290BA691343BB617B68BA695A603B685B6803F00303032B17D07B68DB68BB61FB6981
S325080052B05B00032202FA03F3DB43BA691340BB613B689A68FB695B0002FA03F3BA691343DF
S325080052D0BB617B68BA69DA603B685B6803F00303022B23D1FB69DA087B68083253F82230D4
S325080052F0BB61FB6903F007039B000F2202FA03F3DB43BA691340BB613B681A69FB6903F028
S3250800531007039B0002FA03F3BA691343BB61FB69DA087B680832B96943F822107B681B68EB
S32508005330BB61FB695B00032202FA03F3DB43BA691340BB613B685B6803F00302FB695B0090
S3250800535002FA03F3BA691343BB617B68BA691A603B685B6803F44033002B00F0B4800023E6
S32508005370FB60604B5B6C5F4A43F4804353645D4B5B6C03F48043FB60FB685B4AFB699B0855
S32508005390023352F82330BB61FB6903F003039B000F2202FA03F3DB43BA691340BB617B6853
S325080053B0524A93422BD07B68514A934225D07B68504A93421FD07B684F4A934219D07B68BD
S325080053D04E4A934213D07B684D4A93420DD07B684C4A934207D07B684B4A934201D10723C5
S325080053F00EE008230CE006230AE0052308E0042306E0032304E0022302E0012300E0002322
S32508005410FA6902F0030292009340BA691343BB613549FB699B080233BA6941F823203B4B3B
S325080054309B68BB613B69DB43BA691340BB613B685B6803F48013002B03D0BA693B691343D0
S32508005450BB61324ABB699360304BDB68BB613B69DB43BA691340BB613B685B6803F40013E1
S32508005470002B03D0BA693B691343BB61274ABB69D360264B5B68BB613B69DB43BA69134087
S32508005490BB613B685B6803F40033002B03D0BA693B691343BB611D4ABB6953601B4B1B68E4
S325080054B0BB613B69DB43BA691340BB613B685B6803F48033002B03D0BA693B691343BB6117
S325080054D0124ABB691360FB690133FB61FB690F2B7FF690AE00BF00BF2437BD465DF8047BC6
S325080054F0704700BF0038024000380140000002400004024000080240000C024000100240B3
S325080055100014024000180240001C0240003C014080B485B000AF78600B467B807B681A6940
S325080055307B881340002B02D00123FB7301E00023FB73FB7B18461437BD465DF8047B704749
S3250800555080B483B000AF78600B467B8013467B707B78002B03D07A887B689A6103E07B88F8
S325080055701A047B689A6100BF0C37BD465DF8047B7047000080B582B000AF0346FB80084B54
S325080055905A69FB881340002B06D0054AFB885361FB881846FCF74EFE00BF0837BD4680BD6F
S325080055B0003C014080B586B000AF78607B68002B01D1012367E27B681B6803F00103002B89
S325080055D075D0884B9B6803F00C03042B0CD0854B9B6803F00C03082B12D1824B5B6803F413
S325080055F08003B3F5800F0BD17E4B1B6803F40033002B5BD07B685B68002B57D1012342E2EA
S325080056107B685B68B3F5803F06D1764B1B68754A43F4803313601DE07B685B68B3F5A02F0E
S325080056300CD1704B1B686F4A43F4802313606D4B1B686C4A43F4803313600BE0694B1B68BB
S32508005650684A23F480331360664B1B68654A23F4802313607B685B68002B13D0FEF762FD25
S32508005670386108E0FEF75EFD02463B69D31A642B01D9032307E25B4B1B6803F40033002B6C
S32508005690F0D014E0FEF74EFD386108E0FEF74AFD02463B69D31A642B01D90323F3E1514B63
S325080056B01B6803F40033002BF0D100E000BF7B681B6803F00203002B63D04A4B9B6803F04D
S325080056D00C03002B0BD0474B9B6803F00C03082B1CD1444B5B6803F48003002B16D1414B76
S325080056F01B6803F00203002B05D07B68DB68012B01D00123C7E13B4B1B6823F0F8027B6829
S325080057101B69DB00374913430B603AE07B68DB68002B20D0344B01221A60FEF703FD3861C6
S3250800573008E0FEF7FFFC02463B69D31A022B01D90323A8E12B4B1B6803F00203002BF0D008
S32508005750284B1B6823F0F8027B681B69DB00254913430B6015E0244B00221A60FEF7E2FCE4
S32508005770386108E0FEF7DEFC02463B69D31A022B01D9032387E11B4B1B6803F00203002B41
S32508005790F0D17B681B6803F00803002B36D07B685B69002B16D0154B01221A60FEF7C2FC2D
S325080057B0386108E0FEF7BEFC02463B69D31A022B01D9032367E10B4B5B6F03F00203002B0A
S325080057D0F0D01BE0094B00221A60FEF7ABFC38610EE0FEF7A7FC02463B69D31A022B07D95F
S325080057F0032350E10038024000004742800E4742884B5B6F03F00203002BEAD17B681B6839
S3250800581003F00403002B00F097800023FB75814B1B6C03F08053002B0FD10023BB607D4B81
S325080058301B6C7C4A43F0805313647A4B1B6C03F08053BB60BB680123FB75774B1B6803F460
S325080058508073002B18D1744B1B68734A43F480731360FEF767FC386108E0FEF763FC024612
S325080058703B69D31A022B01D903230CE16A4B1B6803F48073002BF0D07B689B68012B06D169
S32508005890644B1B6F634A43F0010313671CE07B689B68052B0CD15F4B1B6F5E4A43F004034E
S325080058B013675C4B1B6F5B4A43F0010313670BE0584B1B6F574A23F001031367554B1B6F55
S325080058D0544A23F0040313677B689B68002B15D0FEF728FC38610AE0FEF724FC02463B69E5
S325080058F0D31A41F28832934201D90323CBE0494B1B6F03F00203002BEED014E0FEF712FC3A
S3250800591038610AE0FEF70EFC02463B69D31A41F28832934201D90323B5E03E4B1B6F03F0B1
S325080059300203002BEED1FB7D012B05D1394B1B6C384A23F0805313647B689B69002B00F0F4
S32508005950A180344B9B6803F00C03082B5CD07B689B69022B41D1314B00221A60FEF7E2FB15
S32508005970386108E0FEF7DEFB02463B69D31A022B01D9032387E0274B1B6803F00073002BC7
S32508005990F0D17B68DA697B681B6A1A437B685B6A9B011A437B689B6A5B08013B1B041A4399
S325080059B07B68DB6A1B061B4913434B601B4B01221A60FEF7B7FB386108E0FEF7B3FB024605
S325080059D03B69D31A022B01D903235CE0114B1B6803F00073002BF0D054E0104B00221A6054
S325080059F0FEF7A0FB386108E0FEF79CFB02463B69D31A022B01D9032345E0064B1B6803F0FA
S32508005A100073002BF0D13DE07B689B69012B07D1012338E0003802400070004060004742B2
S32508005A301B4B5B68FB607B689B69012B28D0FB6803F480027B68DB699A4221D1FB6803F092
S32508005A503F027B681B6A9A421AD1FA6847F6C07313407A68526A9201934211D1FB6803F451
S32508005A7040327B689B6A5B08013B1B049A4207D1FB6803F070627B68DB6A1B069A4201D01E
S32508005A90012300E0002318461837BD4680BD00BF0038024080B584B000AF786039607B682F
S32508005AB0002B01D10123CCE0684B1B6803F007033A689A420CD9654B3A68D2B21A70634B57
S32508005AD01B6803F007033A689A4201D00123B8E07B681B6803F00203002B20D07B681B683E
S32508005AF003F00403002B05D0594B9B68584A43F4E05393607B681B6803F00803002B05D084
S32508005B10534B9B68524A43F460439360504B9B6823F0F0027B689B684D4913438B607B681A
S32508005B301B6803F00103002B44D07B685B68012B07D1474B1B6803F40033002B19D101236C
S32508005B507FE07B685B68022B03D07B685B68032B07D13F4B1B6803F00073002B09D10123DA
S32508005B706FE03B4B1B6803F00203002B01D1012367E0374B9B6823F003027B685B6834498F
S32508005B9013438B60FEF7CEFAF8600AE0FEF7CAFA0246FB68D31A41F28832934201D9032394
S32508005BB04FE02B4B9B6803F00C027B685B689B009A42EBD1254B1B6803F007033A689A42D7
S32508005BD00CD2224B3A68D2B21A70204B1B6803F007033A689A4201D0012332E07B681B68D6
S32508005BF003F00403002B08D0194B9B6823F4E0527B68DB68164913438B607B681B6803F0BB
S32508005C100803002B09D0124B9B6823F460427B681B69DB000E4913438B6000F021F8024613
S32508005C300B4B9B681B0903F00F030A49CB5C22FA03F3094A1360094B1B681846FEF72EFA20
S32508005C50002318461037BD4680BD00BF003C0240003802404CB90008000000200800002012
S32508005C702DE9B04F94B000AF00237B640023FB6400233B640023BB64794B9B6803F00C03AD
S32508005C90082B0DD0082B00F2E180002B02D0042B03D0DBE0734BBB64DBE0734BBB64D8E069
S32508005CB06F4B5B6803F03F037B646D4B5B6803F48003002B63D06A4B5B689B090022BB6386
S32508005CD0FA63BB6BC3F308033B6300237B63D7E90C4522462B464FF000004FF00001590100
S32508005CF041EAD261500102460B462146511A3961294663EB01037B614FF000024FF00003B2
S32508005D10D7E904AB59468B01514643EA916351468A015146B2EB0108594663EB01094FF07E
S32508005D3000024FF000034FEAC90343EA58734FEAC80290469946234618EB0303BB602B464E
S32508005D5049EB0303FB604FF000024FF00003D7E9024529464B02214643EAD15321464A02DF
S32508005D70104619467B6C0022BB62FA62D7E90A23FAF712FF02460B461346FB6458E0384BD3
S32508005D905B689B09002218461146C0F308033B6200237B62D7E9088942464B464FF00000A3
S32508005DB04FF00001590141EAD261500102460B464146B2EB010A494663EB010B4FF000028A
S32508005DD04FF000034FEA8B1343EA9A634FEA8A12B2EB0A0463EB0B054FF000024FF0000301
S32508005DF0EB0043EA5473E20014461D464346E3183B604B4645EB03037B604FF000024FF0C6
S32508005E100003D7E9004529468B02214643EA915321468A02104619467B6C0022BB61FA61C0
S32508005E30D7E90623FAF7B8FE02460B461346FB640B4B5B681B0C03F0030301335B003B64FC
S32508005E50FA6C3B6CB2FBF3F3BB6402E0054BBB6400BFBB6C18465037BD46BDE8B08F00BFA3
S32508005E70003802400024F40000127A0080B400AF034B1B681846BD465DF8047B704700BF87
S32508005E900000002080B500AFFFF7F0FF0246054B9B689B0A03F007030349CB5C22FA03F339
S32508005EB0184680BD003802405CB9000880B500AFFFF7DCFF0246054B9B685B0B03F00703DF
S32508005ED00349CB5C22FA03F3184680BD003802405CB9000880B586B000AF786000237B61FC
S32508005EF000233B617B681B6803F00103002B05D17B681B6803F00403002B35D0624B002208
S32508005F101A60FEF70FF9786108E0FEF70BF902467B69D31A022B01D90323B0E05B4B1B6833
S32508005F3003F00063002BF0D17B685B689A017B689B681B0755491343C1F88430524B012297
S32508005F501A60FEF7EFF8786108E0FEF7EBF802467B69D31A022B01D9032390E04B4B1B6865
S32508005F7003F00063002BF0D07B681B6803F00203002B00F083800023FB60444B1B6C434A25
S32508005F9043F080531364414B1B6C03F08053FB60FB683F4B1B683E4A43F480731360FEF7A8
S32508005FB0C1F8786108E0FEF7BDF802467B69D31A022B01D9032362E0354B1B6803F480732A
S32508005FD0002BF0D0314B1B6F03F440733B613B69002B2FD07B68DB6803F440733A699A424F
S32508005FF028D02A4B1B6F23F440733B61294B01221A60284B00221A60244A3B691367234B0C
S325080060101B6F03F00103012B14D1FEF78BF878610AE0FEF787F802467B69D31A41F288321B
S32508006030934201D903232AE0184B1B6F03F00203002BEED07B68DB6803F44073B3F5407F5E
S325080060500DD1124B9B6823F4F8127B68DB6823F0704323F440730D4913438B6005E00B4B3B
S325080060709B680A4A23F4F8139360084B1A6F7B68DB68C3F30B03054913430B670023184639
S325080060901837BD4680BD00BF680047420038024000700040400E474280B582B000AF7860B4
S325080060B07B68002B01D101231CE07B685B79DBB2002B05D17B6800221A717868FBF7BCFC63
S325080060D07B6802225A717B681B681A687B681B6842F004021A607B6801225A717B680022FA
S325080060F09A60002318460837BD4680BD80B584B000AF78607B68002B01D1012373E07B685E
S325080061105B7FDBB2002B05D17B6800221A777868FBF7B4FC7B6802225A777B681B68DB6860
S3250800613003F01003102B55D07B681B68CA225A627B681B6853225A62786800F09DF9034687
S32508006150FB73FB7B002B2CD17B681B689B687A68126823F4E00323F0400393607B681B68A7
S3250800617099687B685A687B681B691A437B685B691A437B681B680A439A607B681B687A689E
S32508006190D2681A617B681B6819697B689B681A047B681B680A431A61786800F0A4F903465C
S325080061B0FB73FB7B002B10D17B681B681A6C7B681B6822F480221A647B681B68196C7B687B
S325080061D09A697B681B680A431A647B681B68FF225A6201E00023FB73FB7B002B02D17B6861
S325080061F001225A77FB7B18461037BD4680BD90B587B000AFF860B9607A6000237B61FB685A
S325080062101B7F012B01D1022387E0FB6801221A77FB6802225A777B68002B26D1FB681B68E2
S325080062309B6803F04003002B02D1BB680022DA70BB681B78184600F07BF903461C04BB6876
S325080062505B78184600F074F903461B021C43BB689B78184600F06CF9034644EA0302BB6845
S32508006270DB789B0513437B6118E0FB681B689B6803F04003002B02D1BB680022DA70BB6814
S325080062901B781A04BB685B781B021343BA6892781A43BB68DB789B0513437B61FB681B680F
S325080062B0CA225A62FB681B6853225A62F86800F0E3F80346FB74FB7C002B20D1FB681A68A6
S325080062D07B6903F07F3323F0FE431360FB681B689A68FB681B6822F480229A60FB681B68EA
S325080062F09968BB68DA68BB681B691A43FB681B680A439A60F86800F0F6F80346FB74FB7C7C
S32508006310002B02D1FB6801225A77FB681B68FF225A62FB6800221A77FB7C18461C37BD4606
S3250800633090BD90B587B000AFF860B9607A6000237B61FB681B7F012B01D1022371E0FB68A9
S3250800635001221A77FB6802225A777B68002B0ED1BB685B7803F01003002B08D0BB685B7831
S3250800637023F01003DBB20A33DAB2BB685A707B68002B1CD1BB68DB78184600F0D9F80346BD
S325080063901C04BB685B78184600F0D2F803461B021C43BB689B78184600F0CAF8034644EA2F
S325080063B00302BB681B785B0313437B610EE0BB68DB781A04BB685B781B021343BA6892785D
S325080063D01A43BB681B785B0313437B61FB681B68CA225A62FB681B6853225A62F86800F007
S325080063F04BF80346FB74FB7C002B0CD1FB681A687B6923F07F4323F0C0035360F86800F08E
S3250800641072F80346FB74FB7C002B02D1FB6801225A77FB681B68FF225A62FB6800221A7797
S32508006430FB7C18461C37BD4690BD000080B584B000AF78600023FB607B681B680D4ADA6061
S32508006450FDF770FEF86009E0FDF76CFE0246FB68D31AB3F57A7F01D9032307E07B681B6897
S32508006470DB6803F02003002BEED0002318461037BD4680BD5F7F010080B584B000AF7860E5
S325080064900023BB600023FB737B681B68DB6803F04003002B22D17B681B68DA687B681B6804
S325080064B042F08002DA60FDF73DFEB8600CE0FDF739FE0246BB68D31AB3F57A7F04D97B68B9
S325080064D004225A770123FB737B681B68DB6803F04003002B02D1FB7B012BE8D1FB7B184609
S325080064F01037BD4680BD80B584B000AF78600023FB737B681B68DA687B681B6822F08002D4
S32508006510DA607B681B689B6803F02003002B0AD17868FFF78BFF0346002B04D07B680422ED
