S01300006669726D776172655F6170702E733139E4
S3250800000000000220595C0008FD1D0008051E00080D1E0008151E00081D1E000800000000F5
S32508000020000000000000000000000000251E0008331E000800000000411E00084F1E000832
S32508000040A95C0008A95C0008A95C0008A95C0008A95C0008A95C0008A95C0008A95C00082A
S32508000060A95C00085F1E00086D1E0008A95C0008A95C0008A95C0008A95C0008A95C00080C
S32508000080A95C0008A95C0008A95C0008A95C00087D1E0008A95C0008A95C0008A95C000854
S325080000A0A95C0008A95C0008A95C0008A95C0008A95C0008A95C0008911E0008A95C000820
S325080000C0A95C0008A95C0008A95C0008A95C0008A95C0008A51E0008A95C0008A95C0008EC
S325080000E0A95C0008A95C0008A95C0008A95C0008A95C0008A95C0008A95C0008A95C00088A
S32508000100A95C0008A95C0008A95C0008A95C0008A95C0008A95C0008A95C0008A95C000869
S32508000120A95C0008A95C0008A95C0008A95C0008A95C0008A95C0008A95C0008A95C000849
S32508000140B91E0008A95C0008A95C0008A95C0008A95C0008A95C0008A95C0008A95C000857
S32508000160A95C0008A95C0008A95C0008A95C0008A95C0008A95C0008A95C00080000000016
S30D08000180A95C0008A95C00084F
S3250800019010B5054C237833B9044B13B10448AFF300800123237010BDDC01002000000000A2
S325080001B088D3000808B5034B1BB103490348AFF3008008BD00000000E001002088D3000805
S325080001D001F0FF01102A2BDB10F0070F08D010F8013B013A8B422DD010F0070F42B3F6D1C7
S325080001F0F0B441EA012141EA014122F007047FF000070023F0E80256083C85EA010586EA74
S32508000210010685FA47F5A3FA87F586FA47F6A5FA87F68EB9EED1F0BC01F0FF0102F007026E
S3250800023032B110F8013B013A83EA010313B1F8D10020704701387047002D06BF35460338D1
S32508000250073815F0010F07D1013015F4807F02BF013015F4C03F0130F0BC0138704700BF95
S32508000270034613F8012B002AFBD1181A0138704781F0004102E000BF83F0004330B54FEAA1
S3250800029041044FEA430594EA050F08BF90EA020F1FBF54EA000C55EA020C7FEA645C7FEA8F
S325080002B0655C00F0E2804FEA5454D4EB5555B8BF6D420CDD2C4480EA020281EA030382EAF9
S325080002D0000083EA010180EA020281EA0303362D88BF30BD11F0004F4FEA01314FF4801C81
S325080002F04CEA113102D0404261EB410113F0004F4FEA03334CEA133302D0524263EB43034F
S3250800031094EA050F00F0A780A4F10104D5F1200E0DDB02FA0EFC22FA05F2801841F10001BC
S3250800033003FA0EF2801843FA05F359410EE0A5F120050EF1200E012A03FA0EFC28BF4CF010
S32508000350020C43FA05F3C01851EBE37101F0004507D54FF0000EDCF1000C7EEB00006EEBDA
S325080003700101B1F5801F1BD3B1F5001F0CD349085FEA30004FEA3C0C04F101044FEA445272
S3250800039012F5800F80F09A80BCF1004F08BF5FEA500C50F1000041EB045141EA050130BDD7
S325080003B05FEA4C0C404141EB0101013C28BFB1F5801FE9D291F0000F04BF01460020B1FA46
S325080003D081F308BF2033A3F10B03B3F120020CDA0C3208DD02F1140CC2F10C0201FA0CF035
S325080003F021FA02F10CE002F11402D8BFC2F1200C01FA02F120FA0CFCDCBF41EA0C019040B3
S32508000410E41AA2BF01EB0451294330BD6FEA04041F3C1CDA0C340EDC04F11404C4F1200205
S3250800043020FA04F001FA02F340EA030021FA04F345EA030130BDC4F10C04C4F1200220FA8B
S3250800045002F001FA04F340EA0300294630BD21FA04F0294630BD94F0000F83F4801306BF44
S3250800047081F480110134013D4EE77FEA645C18BF7FEA655C29D094EA050F08BF90EA020FA9
S3250800049005D054EA000C04BF1946104630BD91EA030F1EBF0021002030BD5FEA545C05D153
S325080004B04000494128BF41F0004130BD14F580043CBF01F5801130BD01F0004545F0FE4168
S325080004D041F470014FF0000030BD7FEA645C1ABF194610467FEA655C1CBF0B46024650EA9D
S325080004F0013406BF52EA033591EA030F41F4002130BD00BF90F0000F04BF0021704730B5D2
S325080005104FF4806404F132044FF000054FF0000150E700BF90F0000F04BF0021704730B5E2
S325080005304FF4806404F1320410F0004548BF40424FF000013EE700BF42004FEAE2014FEAC2
S3250800055031014FEA02701FBF12F07F4393F07F4F81F06051704732F07F4208BF704793F0F0
S325080005707F4F04BF41F40021704730B54FF4607401F0004521F000411CE700BF50EA01023C
S3250800059008BF704730B54FF000050AE050EA010208BF704730B511F0004502D5404261EB21
S325080005B041014FF4806404F132045FEA915C3FF4D8AE4FF003025FEADC0C18BF03325FEAD0
S325080005D0DC0C18BF033202EBDC02C2F1200300FA03FC20FA02F001FA03FE40EA0E0021FA14
S325080005F002F11444BDE600BF70B54FF0FF0C4CF4E06C1CEA11541DBF1CEA135594EA0C0FE7
S3250800061095EA0C0F00F0DEF82C4481EA030621EA4C5123EA4C5350EA013518BF52EA033569
S3250800063041F4801143F4801338D0A0FB02CE4FF00005E1FB02E506F00042E0FB03E54FF058
S325080006500006E1FB03569CF0000F18BF4EF0010EA4F1FF04B6F5007F64F5407404D25FEA94
S325080006704E0E6D4146EB060642EAC62141EA55514FEAC52040EA5E504FEACE2EB4F1FD0C58
S3250800069088BFBCF5E06F1ED8BEF1004F08BF5FEA500E50F1000041EB045170BD06F0004668
S325080006B046EA010140EA020081EA0301B4EB5C04C2BFD4EB0C0541EA045170BD41F480118C
S325080006D04FF0000E013C00F3AB8014F1360FDEBF002001F0004170BDC4F10004203C35DACA
S325080006F00C341BDC04F11404C4F1200500FA05F320FA04F001FA05F240EA020001F000426D
S3250800071021F0004110EBD37021FA04F642EB06015EEA430E08BF20EAD37070BDC4F10C0443
S32508000730C4F1200500FA04F320FA05F001FA04F240EA020001F0004110EBD37041F1000101
S325080007505EEA430E08BF20EAD37070BDC4F1200500FA05F24EEA020E20FA04F301FA05F28B
S3250800077043EA020321FA04F001F0004121FA04F220EA020000EBD3705EEA430E08BF20EA33
S32508000790D37070BD94F0000F0FD101F00046400041EB010111F4801F08BF013CF7D041EA19
S325080007B0060195F0000F18BF704703F00046520043EB030313F4801F08BF013DF7D043EA94
S325080007D00603704794EA0C0F0CEA135518BF95EA0C0F0CD050EA410618BF52EA4306D1D178
S325080007F081EA030101F000414FF0000070BD50EA410606BF1046194652EA430619D094EAE7
S325080008100C0F02D150EA013613D195EA0C0F05D152EA03361CBF104619460AD181EA0301B8
S3250800083001F0004141F0FE4141F470014FF0000070BD41F0FE4141F4780170BD70B54FF037
S32508000850FF0C4CF4E06C1CEA11541DBF1CEA135594EA0C0F95EA0C0F00F0A7F8A4EB0504D4
S3250800087081EA030E52EA03354FEA013100F088804FEA03334FF0805545EA131343EA12638D
S325080008904FEA022245EA111545EA10654FEA00260EF000419D4208BF964244F1FD0404F599
S325080008B0407402D25B084FEA3202B61A65EB03055B084FEA32024FF480104FF4002CB6EBE7
S325080008D0020E75EB030E22BFB61A754640EA0C005B084FEA3202B6EB020E75EB030E22BF04
S325080008F0B61A754640EA5C005B084FEA3202B6EB020E75EB030E22BFB61A754640EA9C00A5
S325080009105B084FEA3202B6EB020E75EB030E22BFB61A754640EADC0055EA060E18D04FEAE1
S32508000930051545EA16754FEA06164FEAC30343EA52734FEAC2025FEA1C1CC0D111F4801FCC
S325080009500BD141EA00014FF000004FF0004CB6E711F4801F04BF01430020B4F1FD0C88BF4A
S32508000970BCF5E06F3FF6AFAEB5EB030C04BFB6EB020C5FEA500C50F1000041EB045170BD12
S325080009900EF0004E4EEA113114EB5C04C2BFD4EB0C0541EA045170BD41F480114FF0000E03
S325080009B0013C90E645EA060E8DE60CEA135594EA0C0F08BF95EA0C0F3FF43BAF94EA0C0FA2
S325080009D00AD150EA01347FF434AF95EA0C0F7FF425AF104619462CE795EA0C0F06D152EA03
S325080009F003353FF4FDAE1046194622E750EA410618BF52EA43067FF4C5AE50EA41047FF450
S32508000A100DAF52EA43057FF4EBAE12E74FF0FF3C06E000BF4FF0010C02E000BF4FF0010C1B
S32508000A304DF804CD4FEA410C7FEA6C5C4FEA430C18BF7FEA6C5C1BD001B050EA410C0CBF4D
S32508000A5052EA430C91EA030F02BF90EA020F0020704710F1000F91EA030F58BF994208BFE7
S32508000A7090422CBFD8176FEAE37040F0010070474FEA410C7FEA6C5C02D150EA013C07D13F
S32508000A904FEA430C7FEA6C5CD6D152EA033CD3D05DF8040B704700BF8446104662468C4646
S32508000AB01946634600E000BF01B5FFF7B7FF002848BF10F1000F01BD4DF808EDFFF7F4FFEF
S32508000AD00CBF012000205DF808FB00BF4DF808EDFFF7EAFF34BF012000205DF808FB00BF71
S32508000AF04DF808EDFFF7E0FF94BF012000205DF808FB00BF4DF808EDFFF7CEFF94BF0120AD
S32508000B1000205DF808FB00BF4DF808EDFFF7C4FF34BF012000205DF808FB00BF4FEA410CBC
S32508000B307FEA6C5C02D150EA013C0AD14FEA430C7FEA6C5C02D152EA033C02D14FF0000028
S32508000B5070474FF0010070474FEA410212F5001215D211D56FF47873B3EB625212D94FEAA3
S32508000B70C12343F0004343EA505311F0004F23FA02F018BF404270474FF00000704750EA8E
S32508000B90013005D111F0004008BF6FF0004070474FF00000704700BF53B94AB9002908BF1E
S32508000BB000281CBF4FF0FF314FF0FF3000F088B9ADF1080C6DE904CE00F006F8DDF804E085
S32508000BD0DDE9022304B070472DE9F047089D8E4604468846002B4AD18A42174662D9B2FA6D
S32508000BF082F64EB1C6F1200301FA06F820FA03F3B74043EA0808B4404FEA174E1FFA87FC1B
S32508000C10B8FBFEF1230C0EFB118843EA084301FB0CF29A4209D9FB1801F1FF3080F0EA8005
S32508000C309A4240F2E78002393B449A1AA3B2B2FBFEF00EFB102243EA024300FB0CFC9C4532
S32508000C5009D9FB1800F1FF3280F0D6809C4540F2D3803B44023840EA0140A3EB0C03002151
S32508000C701DB1F3400022C5E90032BDE8F0878B4205D90DB1C5E9000100210846F5E7B3FA27
S32508000C9083F1002946D1734502D3824200F20581841A6EEB030201209046002DE5D0C5E936
S32508000CB00048E2E7002A00F09080B2FA82F6002E40F0A4808A1A030C4FEA174E80B2BCB244
S32508000CD00121B2FBFEFC0EFB1C2243EA024304FB0CF29A4207D9FB180CF1FF3802D29A42C4
S32508000CF000F2E080C4469B1AB3FBFEF20EFB123340EA034302FB04F49C4207D9FB1802F1B0
S32508000D10FF3002D29C4200F2CA8002461B1B42EA0C40A5E7C1F120068B4022FA06F71F43F8
S32508000D300EFA01F420FA06F32EFA06FE4FEA1749234300FA01F81FFA87FCBEFBF9F01C0C01
S32508000D5009FB10EE44EA0E4400FB0CFEA64502FA01F209D93C1900F1FF3A80F09C80A6453C
S32508000D7040F2998002383C44A4EB0E041FFA83FEB4FBF9F309FB13444EEA044403FB0CFC99
S32508000D90A44508D93C1903F1FF3E80F08280A4457FD9023B3C4443EA0040A4EB0C04A0FBCE
S32508000DB002EC64457346E14662D35FD05DB1B8EB030264EB090404FA06F622FA01F31E43BD
S32508000DD0CC40C5E9006400214FE7B1FBF2FC010C41EA0E4180B240EA01423B4638463C463F
S32508000DF0B846BE462026B1FBF7F1A2EB080241EA0C4166E7014618E710462CE7C6F1200215
S32508000E102EFA02F3B740B14020FA02F24FEA174E0A43B3FBFEF8BCB20EFB1833110C41EA08
S32508000E30034108FB04F9B04089454FEA104380B23ED9791808F1FF3C01D289451FD8A1EBD4
S32508000E500901B1FBFEF909FB04F80EFB191192B242EA0142424529D2BA1809F1FF31C4D2CD
S32508000E704245C2D2A9F102013A44BEE7F0459DD2BEEB02036CEB070C0138E14696E7A7EB4E
S32508000E9009094944A8F1020CB1FBFEF909FB04F8DBE773467FE7504666E70846FDE63B44D7
S32508000EB0023A33E7ACF1020C3B441CE749469CE7A1EB0901C446B1FBFEF909FB04F8C4E791
S32508000ED0704700BF80B400AF084B00221A60084B00221A60074B00221A60074B00221A60E1
S32508000EF000BFBD465DF8047B704700BFFC01002000020020040200200802002080B400AF56
S32508000F1000BFBD465DF8047B7047000080B400AF2B4B1B6801332A4A13602A4B19682A4B04
S32508000F30A3FB0123DA0813469B0013445B00CA1A002A02D1254B01221A70214B1B68013328
S32508000F501F4A13601E4B19681F4BA3FB0123DA0813469B0013445B00CA1A002A02D11C4BB1
S32508000F7001221A701B4B1B6801331A4A1360194B1A68194BA3FB02135B09642101FB03F3DA
S32508000F90D31A002B02D1154B01221A70144B1B680133134A1360124B1A68124BA3FB021366
S32508000FB09B094FF47A7101FB03F3D31A002B02D10D4B01221A7000BFBD465DF8047B704712
S32508000FD000020020FC010020CDCCCCCCF8010020F9010020040200201F85EB51FA0100202F
S32508000FF008020020D34D6210FB01002080B485B000AF78607A6813461B019B1AFB6000E0C4
S3250800101000BFFB685A1EFA60002BF9D100BF00BF1437BD465DF8047B7047000080B586B007
S3250800103000AF3B1D00221A605A609A60DA601A6101237B600023BB600123FB603B1D194613
S32508001050034805F0EBFE00BF1837BD4680BD00BF0010024080B586B000AF3B1D00221A60DC
S325080010705A609A60DA601A6101237B601123BB600023FB6000233B613B1D1946034805F067
S32508001090CDFE00BF1837BD4680BD00BF0010024080B500AFFFF7DEFF00220121024806F0CD
S325080010B071F800BF80BD00BF0010024080B500AFFFF7D0FF01220121024806F063F800BF54
S325080010D080BD00BF0010024080B500AFFFF7A6FF0121034806F03EF80346184680BD00BFE9
S325080010F00010024080B582B000AFFFF7D1FF4FF4F070FFF77BFFFFF7D9FF3C20FFF776FFFC
S32508001110FFF7E2FF0346FB716420FFF76FFFFB79002B0ED10C4B01221A700C4B1B78002BA6
S3250800113005D10B480AF0B6F9084B01221A70002306E008480AF0AEF9034B00221A700123A7
S3250800115018460837BD4680BD0C0200201C020020A0D30008C4D3000880B582B000AF786020
S32508001170391D4FF6FF730122034808F04BFC7B6818460837BD4680BD4003002080B500AF90
S3250800119004F08CFD00F078F800F0D4FA00F0E0F800F014F900F048F900F05AF900F0B2F9C2
S325080011B000F0E6F900F048FA00F070FA00F098FA04F0BCFC04F025FB274803F073FF02217D
S325080011D0264804F04BFB04F05FFC0346002B03D123480AF05FF902E022480AF05BF9FFF765
S325080011F081FF01F069F802F03DF803F0B3FE02F0CDF9FFF767FEFFF781FE1B4B1B78002B88
S3250800121004D002F01DFA184B00221A70174B1B78002B10D004F07AF904F074FC01F0DEF832
S3250800123002F056F803F0A6FE00F0E2FF00F01EFF0E4B00221A700E4B1B78002B04D004F0F7
S3250800125021FA0B4B00221A700A4B1B78002BD4D0084B00221A70D0E778D5000880D5000834
S3250800127004D4000828D40008F8010020F9010020FA010020FB01002080B594B000AF07F1E2
S3250800129020033022002118460AF0E4F907F10C0300221A605A609A60DA601A610023BB601B
S325080012B0294B1B6C284A43F080531364264B1B6C03F08053BB60BB6800237B60234B1B683B
S325080012D0224A43F480431360204B1B6803F480437B607B6809233B624FF480337B620123F1
S325080012F07B630223BB634FF48003FB6308233B644FF4A8737B640223BB640723FB6407F1BF
S325080013102003184605F070FF0346002B01D000F0DDFA0F23FB6002233B6100237B614FF42E
S32508001330A053BB614FF48053FB6107F10C030521184606F0D1F90346002B01D000F0C6FACE
S3250800135000BF5037BD4680BD003802400070004080B500AF174B184A1A60164B06225A605A
S32508001370144B00229A60134B0022DA60114B4FF410221A610F4B4FF400125A610D4B0022EA
S325080013901A760C4B00225A760A4B00229A76094B0022DA76074B00221A77064B00225A77C0
S325080013B0044804F0EDFC0346002B01D000F08EFA00BF80BD200200200064004080B500AF63
S325080013D0174B184A1A60164B06225A60144B00229A60134B0022DA60114B4FF410221A61ED
S325080013F00F4B4FF400125A610D4B00221A760C4B00225A760A4B00229A76094B0022DA76C5
S32508001410074B00221A77064B00225A77044804F0B7FC0346002B01D000F058FA00BF80BDEF
S32508001430480200200068004080B500AF064B074A1A60054806F052FC0346002B01D000F0B6
S3250800145045FA00BF80BD00BF700200200008065080B586B000AF3B1D00221A605A609A60C2
S32508001470DA601A6100233B60244B254A1A60234B00225A60214B7F229A60204BFF22DA606C
S325080014901E4B00221A611D4B00225A611B4B00229A611A4806F04CFC0346002B01D000F08B
S325080014B015FA00233B7100237B710023BB7100233B6100237B613B1D012219460F4806F0ED
S325080014D0B8FC0346002B01D000F000FA01233B7001237B700123BB700023FB703B460122AC
S325080014F01946064806F03FFD0346002B01D000F0EDF900BF1837BD4680BD00BF8002002025
S325080015100028004080B500AF174B184A1A60164B4FF482725A60144B00229A60124B0022D7
S32508001530DA60114B00221A610F4B00225A610E4B4FF400729A610C4B1022DA610A4B0022DF
S325080015501A62094B00225A62074B00229A62064B0A22DA62044806F02BFE0346002B01D0E6
S3250800157000F0B4F900BF80BDA00200200030014080B58AB000AF07F1200300221A605A60F2
S325080015903B1D00221A605A609A60DA601A615A619A61274B274A1A60254BA7225A60244B5B
S325080015B000229A60224B40F2E732DA60204B00221A611F4B00229A611D4807F0CBFB034605
S325080015D0002B01D000F082F900233B6200237B6207F120031946164808F034F90346002B55
S325080015F001D000F073F960237B600023BB600023FB6000237B613B1D002219460C4807F063
S32508001610B1FD0346002B01D000F060F93B1D04221946074807F0A6FD0346002B01D000F075
S3250800163055F9034800F0ECFA00BF2837BD4680BDF80200200008004080B500AF114B124AC1
S325080016501A60104B4FF4E1325A600E4B00229A600C4B0022DA600B4B00221A61094B0C22EA
S325080016705A61084B00229A61064B0022DA61054808F078F90346002B01D000F027F900BFA9
S3250800169080BD00BF400300200010014080B500AF114B124A1A60104B4FF496425A600E4BDD
S325080016B000229A600C4B0022DA600B4B00221A61094B0C225A61084B00229A61064B00222A
S325080016D0DA61054808F04EF90346002B01D000F0FDF800BF80BD00BF880300200044004011
S325080016F080B500AF114B124A1A60104B4FF496425A600E4B00229A600C4B0022DA600B4B08
S3250800171000221A61094B0C225A61084B00229A61064B0022DA61054808F024F90346002BDD
S3250800173001D000F0D3F800BF80BD00BFD00300200048004080B58AB000AF07F1140300227A
S325080017501A605A609A60DA601A6100233B615A4B1B6B594A43F010031363574B1B6B03F024
S3250800177010033B613B690023FB60534B1B6B524A43F080031363504B1B6B03F08003FB609C
S32508001790FB680023BB604C4B1B6B4B4A43F001031363494B1B6B03F00103BB60BB680023B9
S325080017B07B60454B1B6B444A43F002031363424B1B6B03F002037B607B6800233B603E4BCE
S325080017D01B6B3D4A43F0080313633B4B1B6B03F008033B603B6801220121384805F0D2FC5A
S325080017F000224FF48041364805F0CCFC00224FF48071344805F0C6FC01220121324805F02D
S32508001810C1FC18237B614FF40413BB610123FB6107F1140319462C4805F000FB01237B610E
S325080018300123BB610023FB6100233B6207F114031946224805F0F2FA4FF480437B6101234C
S32508001850BB610023FB6100233B6207F1140319461B4805F0E3FA4FF480737B610123BB611A
S325080018700023FB6100233B6207F114031946154805F0D4FA01237B611123BB610023FB61AE
S3250800189000233B6207F1140319460F4805F0C6FA00220621092005F0F8F9092005F011FA6F
S325080018B0002206210A2005F0F0F90A2005F009FA00BF2837BD4680BD003802400004024079
S325080018D0000C0240000002400010024080B400AF72B600BF00BFFDE780B483B000AF002362
S325080018F07B60104B5B6C0F4A43F4804353640D4B5B6C03F480437B607B6800233B60094B1A
S325080019101B6C084A43F080531364064B1B6C03F080533B603B6800BF0C37BD465DF8047B9E
S32508001930704700BF0038024080B58CB000AF786007F11C0300221A605A609A60DA601A6185
S325080019507B681B684B4A93423ED14B4B1B680133494A1360484B1B68012B0DD10023BB61D8
S32508001970464B1B6C454A43F000731364434B1B6C03F00073BB61BB6900237B613F4B1B6BBB
S325080019903E4A43F0020313633C4B1B6B03F002037B617B694FF44073FB6102233B620023F7
S325080019B07B620323BB620923FB6207F11C031946334805F033FA00220421142005F065F97F
S325080019D0142005F07EF950E07B681B682D4A93424BD100233B61294B1B6C284A43F0806309
S325080019F01364264B1B6C03F080633B613B69224B1B680133204A13601F4B1B68012B0DD14C
S32508001A100023FB601D4B1B6C1C4A43F0007313641A4B1B6C03F00073FB60FB680023BB606A
S32508001A30164B1B6B154A43F002031363134B1B6B03F00203BB60BB684FF44053FB61022323
S32508001A503B6200237B620323BB620923FB6207F11C0319460A4805F0E1F9002204214020C1
S32508001A7005F013F9402005F02CF900BF3037BD4680BD00BF0064004018040020003802404E
S32508001A90000402400068004080B485B000AF78607B681B680B4A93420DD10023FB600A4B09
S32508001AB05B6B094A43F040035363074B5B6B03F04003FB60FB6800BF1437BD465DF8047BD6
S32508001AD0704700BF000806500038024080B586B000AF786007F1080300221A605A609A6055
S32508001AF0DA607B681B680C4A934211D10223BB604FF400737B6107F10803184606F00CF8EE
S32508001B100346002B01D0FFF7E1FE044B01221A6000BF1837BD4680BD002800403C0E474218
S32508001B3080B58AB000AF786007F1140300221A605A609A60DA601A617B681B68194A9342DF
S32508001B502BD100233B61184B5B6C174A43F480535364154B5B6C03F480533B613B6900230C
S32508001B70FB60114B1B6B104A43F0020313630E4B1B6B03F00203FB60FB6838237B61022311
S32508001B90BB610023FB6103233B6205237B6207F114031946054805F041F900BF2837BD46B9
S32508001BB080BD00BF00300140003802400004024080B584B000AF78607B681B680E4A934257
S32508001BD015D10023FB600D4B1B6C0C4A43F0040313640A4B1B6C03F00403FB60FB680022E7
S32508001BF000211E2005F051F81E2005F06AF800BF1037BD4680BD00BF0008004000380240CE
S32508001C1080B588B000AF786007F10C0300221A605A609A60DA601A617B681B68124A93420F
S32508001C301ED10023BB60114B1B6B104A43F0080313630E4B1B6B03F00803BB60BB684FF40B
S32508001C504053FB6002233B6100237B610023BB610223FB6107F10C031946054805F0DEF87A
S32508001C7000BF2037BD4680BD0008004000380240000C024080B58EB000AF786007F12403C7
S32508001C9000221A605A609A60DA601A617B681B68504A934235D100233B624F4B5B6C4E4A8D
S32508001CB043F0100353644C4B5B6C03F010033B623B6A0023FB61484B1B6B474A43F0010303
S32508001CD01363454B1B6B03F00103FB61FB694FF4C0637B620223BB620023FB6203233B63DA
S32508001CF007237B6307F1240319463C4805F096F800220521252004F0C8FF252004F0E1FFD8
S32508001D1063E07B681B68364A93422CD10023BB61314B1B6C304A43F4003313642E4B1B6C0D
S32508001D3003F40033BB61BB6900237B612A4B1B6B294A43F001031363274B1B6B03F0010312
S32508001D507B617B690C237B620223BB620023FB6203233B6307237B6307F1240319461F4826
S32508001D7005F05CF831E07B681B681E4A93422CD100233B61184B1B6C174A43F480231364F0
S32508001D90154B1B6C03F480233B613B690023FB60114B1B6B104A43F0020313630E4B1B6B1D
S32508001DB003F00203FB60FB684FF440637B620223BB620023FB6203233B6307237B6307F106
S32508001DD024031946084805F029F800BF3837BD4680BD00BF001001400038024000000240BF
S32508001DF000440040004800400004024080B400AF00BFFDE780B400AF00BFFDE780B400AF84
S32508001E1000BFFDE780B400AF00BFFDE780B400AF00BFFDE780B400AF00BFBD465DF8047B7C
S32508001E30704780B400AF00BFBD465DF8047B704780B400AF00BFBD465DF8047B704780B538
S32508001E5000AF03F07DFFFFF761F800BF80BD80B500AF082005F0B0F900BF80BD80B500AF71
S32508001E70102005F0A9F900BF80BD000080B500AF024804F004FC00BF80BD00BF2002002062
S32508001E9080B500AF024807F07DF800BF80BD00BFF802002080B500AF024807F03FFE00BF94
S32508001EB080BD00BF4003002080B500AF024804F0E6FB00BF80BD00BF4802002080B400AF9A
S32508001ED001231846BD465DF8047B704780B582B000AF7860396009F00FFC034616221A604E
S32508001EF04FF0FF3318460837BD4680BD80B582B000AF78604FF0FF317868FFF7E7FF00BF9E
S32508001F10FDE780B586B000AFF860B9607A6000237B610AE0AFF300800146BB685A1CBA6055
S32508001F30CAB21A707B6901337B617A697B689A42F0DB7B6818461837BD4680BD80B586B0E1
S32508001F5000AFF860B9607A6000237B6109E0BB685A1CBA601B781846FFF7FEF87B690133D9
S32508001F707B617A697B689A42F1DB7B6818461837BD4680BD80B483B000AF78604FF0FF33CA
S32508001F9018460C37BD465DF8047B704780B483B000AF786039603B684FF400525A60002358
S32508001FB018460C37BD465DF8047B704780B483B000AF7860012318460C37BD465DF8047B4A
S32508001FD0704780B485B000AFF860B9607A60002318461437BD465DF8047B704780B586B004
S32508001FF000AF7860144A154BD31A7B617B693B61134B1B68002B02D1114B124A1A60104BC9
S325080020101A687B6813443A699A4207D209F074FB03460C221A604FF0FF3309E0084B1B6805
S32508002030FB60074B1A687B681344054A1360FB6818461837BD4680BD0000022000040000E1
S325080020501C0400207019002080B400AF064BD3F88830054A43F47003C2F8883000BFBD4695
S325080020705DF8047B704700BF00ED00E080B500AF00F002F800BF80BD80B500AF00F00CF889
S325080020900346184603F0A2FD00F058F80346184603F0ABFD00BF80BD80B582B000AF012331
S325080020B0FB71234B1B785B00DAB2214B1A7003F0BAFD0346FB711E4B1A78FB791343DBB207
S325080020D003F00703DAB21A4B1A70194B1B78002B1BD1184B1B8801339AB2164B1A80154B7B
S325080020F01B8847F22F52934209D9124B47F230521A80114B02221A700F4B1B7814E00E4BB8
S3250800211001221A700C4B1B780EE0094B1B78072B08D1084B00221A80074B00221A70064BCC
S325080021301B7801E0044B1B7818460837BD4680BD04000020200400202204002080B582B039
S3250800215000AF0123FB71264B1B785B00DAB2244B1A7003F070FD0346FB71214B1A78FB79B7
S325080021701343DBB203F00703DAB21D4B1A701C4B1B78002B21D11B4B1B8801339AB2194BDF
S325080021901A80184B1B8847F22F5293420FD9154B47F230521A80134B1B881946124809F0A2
S325080021B011F9124B02221A70104B1B7814E00F4B01221A700D4B1B780EE0094B1B78072B11
S325080021D008D1084B00221A80084B00221A70074B1B7801E0054B1B7818460837BD4680BD74
S325080021F005000020240400204CD400082604002080B582B000AF0023FB710023BB710023CB
S325080022107B717B1D184603F0CFFC7B79002B06D11A4B00221A701A4809F03CF92AE07B796B
S32508002230012B07D1FB1D184603F0ACFCBB1D184603F096FCBB79012B0FD1FB790A2B01D8EE
S32508002250FB7900E00023FB71FB791A46920013445B00DAB2094B1A7002E0084B00221A701A
S32508002270064B1B78184603F06DFC044B1B78184603F0CAFC0837BD4680BD00BF2704002020
S3250800229060D4000880B582B000AF0346FB80FB88102B03D1064809F0FDF805E0FB88082BA1
S325080022B002D1044809F0F6F800BF0837BD4680BD48D5000860D5000880B500AF024803F039
S325080022D031F800BF80BD00BFFD23000880B588B000AF03463960FB713B68002B01D10123A6
S325080022F055E00023FB774EE0FA7F2B4913465B0013449B000B441B78FA799A4240D1FA7F7A
S32508002310254913465B0013449B000B4404331B68FB603B68197AFA7F1F4813465B00134406
S325080023309B00034408331B788B4228BF0B46DBB23B74FA7F184913465B0013449B000B44BF
S325080023500A331B787B760023BB763B6859683B7C1A4607F10C030533184609F0FAF9FA7FCD
S325080023700D4913465B0013449B000B4409331B7807F10C021146184602F080FF034606E0CA
S32508002390FB7F0133FB77FB7F032BADD9012318462037BD4680BD00BFA4D5000880B483B011
S325080023B000AF7860044A7B68136000BF0C37BD465DF8047B704700BF2804002080B483B0D2
S325080023D000AF7860044A7B68136000BF0C37BD465DF8047B704700BF2C04002080B400AF32
S325080023F000BFBD465DF8047B7047000080B586B000AF03463960FB713B68002B5ED00023EB
S32508002410FB7557E0FB7D304A1B0113440D331B78FA799A424BD13B681A68FB7D2A491B0128
S325080024300B4408331B681A40FB7D27491B010B4404331B689A423AD1FB7D234A1B011344CB
S325080024501B783B723B680533FB603B681A79FB7D1D491B010B440C331B78934228BF134682
S32508002470DBB23B74FB7D184A1B0113441B78042B06D0FB7D144A1B0113441B78062B0AD135
S32508002490124B1B68002B11D0104B1B6807F10802104698470AE00E4B1B68002B10D00C4BF5
S325080024B01B6807F108021046984709E008E0FB7D0133FB75FB7D022BA4D902E000BF00E0B4
S325080024D000BF1837BD4680BDD4D500082C0400202804002080B582B000AF0023FB710CE0B2
S325080024F0FB794FF40A7202FB03F3134A1344184600F0A2F9FB790133FB71FB79012BEFD97F
S325080025100D4B00221A700C4B04229A700A4B0522DA70094B012283F82822074B062283F81B
S325080025302A22054BFF2283F82B220448FFF746FF00BF0837BD4680BD300400209D27000813
S3250800255080B58AB000AF03463960FB711346BB80FB79012B01D901238BE03B68002B01D1B4
S32508002570012386E0BB88002B03D0BB88B3F5805F01D301237DE0FB794FF40A7202FB03F32D
S325080025903E4A13443B623B6A5B78002B01D001236FE0BB88072B3ED8BB88DBB23B73BB886E
S325080025B0DBB21A4607F10C0301333968184609F0D0F8BB88DBB2013387F827300BE097F8C1
S325080025D0273028333B44FF2203F81C2C97F82730013387F8273097F82730072BEFD93B6AD3
S325080025F0DB783B7507F10C03BB6108233B773B6ADB7807F1140211461846FFF767FE204B39
S325080026101B68002B05D01E4B1B68FA7900211046984700232DE0BB881A463968194809F096
S3250800263098F83B6A174AC3F814223B6ABA88A3F818223B6A0022A3F81A223B6A012283F858
S325080026501C223B6A002283F81D223B6A012283F82422BB881A460B49386A00F015FA3B6AD7
S3250800267001225A7000F0D4FB02463B6AC3F82022002318462837BD4680BD00BF3004002073
S32508002690840800208808002080B586B000AF00F0BFFB38610023FB756AE0FB7D4FF40A724F
S325080026B002FB03F3364A1344FB60FB685B78013B032B53D801A252F823F000BFDD26000842
S325080026D0092700081127000827270008FB68D3F820323A69D31A4A2B42D9F86800F0ACF87A
S325080026F0284B1B68002B3BD0264B1B68FA68127801211046984733E0F86800F017F934E0D2
S32508002710FB68D3F80C323A69D31A952B2AD9F86800F092F826E0FB6893F81032002B23D0AE
S32508002730194B1B68002B1FD0FB681B78FB72FB6806333B60FB68B3F80632BB800023BB7110
S32508002750FB68002283F81022F86800F075F80E4B1B683946FA7A1046984705E000BF04E0E0
S3250800277000BF02E000BF00E000BFFB7D0133FB75FB7D012B91D900BF00BF1837BD4680BD05
S3250800279030040020840800208008002080B584B000AF78607B68002B26D07B685B68002BAE
S325080027B024D00023FB731BE0FB7B124A4FF40A7101FB03F3134402331A787B681B789A4289
S325080027D00BD1FB7B4FF40A7202FB03F3094A13447968184600F08EF909E0FB7B0133FB7376
S325080027F0FB7B012BE0D902E000BF00E000BF1037BD4680BD3004002080B483B000AF786057
S32508002810044A7B68136000BF0C37BD465DF8047B704700BF8008002080B483B000AF786011
S32508002830044A7B68136000BF0C37BD465DF8047B704700BF8408002080B483B000AF7860ED
S325080028507B6800225A707B680022A3F806227B680022A3F808227B68012283F80A227B6869
S325080028700022C3F80C227B68002283F810227B680022C3F814227B680022A3F818227B68CA
S325080028900022A3F81A227B68012283F81C227B68002283F81D227B680022C3F820227B68BE
S325080028B0002283F8242200BF0C37BD465DF8047B704780B588B000AF7860084611461A468E
S325080028D00346FB700B46BB7013467B70FB7803F00F03DBB243F03003DBB23B72BB787B72A1
S325080028F07B78BB720323FB7708E0FB7F20333B44FF2203F8182CFB7F0133FB77FB7F072BA2
S32508002910F3D97B68DB783B7407F108037B6108233B767B68DB7807F1100211461846FFF742
S32508002930D5FC00BF2037BD4680BD000080B58AB000AF78607B68B3F81A227B68B3F81832BA
S325080029509A420FD37868FFF777FF4E4B1B68002B00F093804B4B1B687A6812780021104609
S3250800297098478BE07B6893F81C3203F00F03DBB243F02003DBB23B737B68B3F818227B6865
S32508002990B3F81A32D31ABB84BB8C072B02D8BB8CDBB200E0072387F823307B68D3F81432FF
S325080029B07A68B2F81A22991897F8232007F10C030133184608F0CDFE97F82330013387F8BD
S325080029D027300BE097F8273028333B44FF2203F81C2C97F82730013387F8273097F827309D
S325080029F0072BEFD97B68DB783B7507F10C03BB6108233B777B68DB7807F1140211461846E0
S32508002A10FFF764FC7B68B3F81A2297F823309BB213449AB27B68A3F81A227B6893F81C3230
S32508002A300133DAB27B6883F81C227B6893F81C320F2B03D97B68002283F81C227B6893F81E
S32508002A501D32013BDAB27B6883F81D227B68B3F81A227B68B3F818329A420FD37868FFF76E
S32508002A70EBFE084B1B68002B08D0064B1B687A68127800211046984700E000BF2837BD46DF
S32508002A9080BD00BF8408002080B58AB000AFF860B9601346FB80FB881B0A9BB2DBB203F098
S32508002AB00F03DBB243F01003DBB23B75FB88DBB27B7507F1140302330622B968184608F0F3
S32508002AD048FEFB68DB783B7707F114033B62082387F82430FB68DB7807F11C0211461846FF
S32508002AF0FFF7F4FBFB680622A3F81A2200BF2837BD4680BD80B584B000AF786039603B68E7
S32508002B105B681B78FB73FB7B23F00F03BB73BB7B302B25D0302B2CDC202B18D0202B28DC9F
S32508002B30002B02D0102B09D023E03B6859683B681B7A1A46786800F021F81BE03B6859681F
S32508002B503B681B7A1A46786800F048F812E03B6859683B681B7A1A46786800F092F809E07E
S32508002B703B6859683B681B7A1A46786800F0FCF800E000BF00BF1037BD4680BD80B586B027
S32508002B9000AFF860B9601346FB71BB681B7803F00F03FB75FB7D072B1AD8FB7D0133DBB232
S32508002BB0FA799A4216D3FB68981DBB680133FA7D194608F0CEFDFB7D9AB2FB68A3F80622CD
S32508002BD0FB68012283F81022FB6804225A7002E000BF00E000BF1837BD4680BD80B586B017
S32508002BF000AFF860B9601346FB71FB79072B44D9BB681B781BB21B021BB203F470631AB20C
S32508002C10BB6801331B781BB213431BB2FB82FB8AB3F5805F09D30A2300220221F868FFF78F
S32508002C3048FEF868FFF708FE28E0FB68FA8AA3F80622FB680022A3F80822FB68012283F8D7
S32508002C500A22FB68981DBB6802330622194608F080FDFB680622A3F808220A2300220021FE
S32508002C70F868FFF726FEFB6803225A7000F0D0F80246FB68C3F80C2200E000BF1837BD462D
S32508002C9080BD80B586B000AFF860B9601346FB71FB685B78032B5ED1BB681B7803F00F033B
S32508002CB0FB75FB6893F80A32FA7D9A4255D1FB68B3F80622FB68B3F80832D31ABB82BB8AF6
S32508002CD0072B02D8BB8ADBB200E00723FB74FB7C0133DBB2FA799A4241D3FB68B3F808329C
S32508002CF01A46FB681344981DBB680133FA7C194608F02FFDFB68B3F80822FB7C9BB2134444
S32508002D109AB2FB68A3F80822FB6893F80A320133DAB2FB6883F80A22FB6893F80A320F2BC9
S32508002D3003D9FB68002283F80A2200F071F80246FB68C3F80C22FB68B3F80822FB68B3F83A
S32508002D5006329A420CD3FB68012283F81022FB6804225A7004E000BF02E000BF00E000BFF9
S32508002D701837BD4680BD000080B586B000AFF860B9601346FB71FB685B78012B3BD1FB7974
S32508002D90022B3AD9BB681B7803F00F03FB75BB6801331B78BB75FB7D022B1DD0022B2EDCC7
S32508002DB0002B02D0012B10D029E0BB7D002B04D1FB68FF2283F81D2203E0FB68BA7D83F875
S32508002DD01D22FB6802225A701CE000F021F80246FB68C3F8202215E0F868FFF72DFD0B4BCD
S32508002DF01B68002B0DD0094B1B68FA68127801211046984705E000BF04E000BF02E000BF28
S32508002E1000E000BF1837BD4680BD00BF8408002080B500AF02F0A8FF0346184680BD80B466
S32508002E3087B000AFF860B9607A60BB689B78DB009BB2BA68D2781344FB82BB681B797B75FE
S32508002E505AE0FB8ADB089BB23B75FB8ADBB203F00703FB74FA7C7B7D9A4203D2FB7C01336D
S32508002E70DBB200E07B7DBB74BB7C012202FA03F3DBB2013B7B747B68DAB2BB7C012101FAD9
S32508002E9003F3DBB2013BDBB213403B743B7DFA68134419787A7CF87CBB7CC31A013302FA16
S32508002EB003F3DBB2DB43DAB23B7DF86803440A40D2B21A703B7DFA68134419783A7CF87CE4
S32508002ED0BB7CC31A013302FA03F3DAB23B7DF86803440A43D2B21A70BB7C7A6822FA03F329
S32508002EF07B607A7DBB7CD31A7B753B7D01339BB2DB009BB20733FB827B7D002BA1D100BF62
S32508002F1000BF1C37BD465DF8047B704780B489B000AFF860B9607A60BB689B78DB009BB22E
S32508002F30BA68D27813447B837B8BDBB203F00703FB777B8BDB089BB2BB77BB681B797B779F
S32508002F503FE0FB7FC3F108033B773A7F7B7F9A4201D97B7F3B773B7F012202FA03F3013B29
S32508002F707B61BB7FFA6813441978FB7F7A6902FA03F3DBB2DB43DAB2BB7FF86803440A4022
S32508002F90D2B21A70BB7FFA68134419787A687B691A40FB7F02FA03F3DAB2BB7FF868034488
S32508002FB00A43D2B21A703B7F7A6822FA03F37B607A7F3B7FD31A7B77BB7F0133BB770023BA
S32508002FD0FB777B7F002BBCD100BF00BF2437BD465DF8047B704780B487B000AF78603960BD
S32508002FF03B689B78DB009BB23A68D2781344FB823B681B797B7500233B610023FB7340E07E
S32508003010FB8ADB089BB2BB73FB8ADBB203F007037B737A7B7B7D9A4203D27B7B0133DBB25D
S3250800303000E07B7D3B733B7B012202FA03F3DBB2013BFB72BB7B7A6813441B7819467A7B95
S325080030503B7BD31A013341FA03F35AB297F90B3013405BB2BB72BA7AFB7B02FA03F33A69A7
S3250800307013433B61FA7B3B7B1344FB737A7D3B7BD31A7B75BB7B01339BB2DB009BB20733AD
S32508003090FB827B7D002BBBD13B6918461C37BD465DF8047B704780B487B000AF7860396078
S325080030B03B689B78DB009BB23A68D2781344BB81BB89DB089BB2FB75BB89DBB203F00703E3
S325080030D0BB753B681B797B7500233B610023FB732DE0BB7DC3F10803BB73BA7B7B7D9A42F0
S325080030F001D97B7DBB73BB7B012202FA03F3DBB2013BFB72FB7D7A6813441B781A46BB7D55
S325080031101A41FB7A13401A46FB7B02FA03F33A6913433B61FA7BBB7B1344FB737A7DBB7B74
S32508003130D31A7B75FB7D0133FB750023BB757B7D002BCED13B6918461C37BD465DF8047B37
S32508003150704780B584B000AFF860B9607A60BB689B79012B05D17A68B968F868FFF75FFE48
S3250800317004E07A68B968F868FFF7D0FE00BF1037BD4680BD80B582B000AF786039603B68B6
S325080031909B79012B05D139687868FFF724FF034604E039687868FFF77EFF0346184608375A
S325080031B0BD4680BD80B485B000AF78600B46FB70FF23FB730023BB7320E0BB7B7A681344B5
S325080031D01A78FB7B5340FB7300237B7310E097F90F30002B06DAFB7B5B00DBB283F01D03FC
S325080031F0FB7302E0FB7B5B00FB737B7B01337B737B7B072BEBD9BB7B0133BB73BA7BFB78DE
S325080032109A42DAD3FB7BDB43DBB218461437BD465DF8047B7047000080B586B000AF03464C
S32508003230FB71FB790D4AD35C002B12D0FB793B73FB79DB000A4A13443B61FB79074AD35C51
S325080032503B7507F10C02FB7911461846FFF73EF800E000BF1837BD4680BD00BFA8D60008D2
S32508003270880A002080B582B000AF0023FB710DE0FB79DB00104A9818FB79104AD35C1A4636
S32508003290002108F0E7F9FB790133FB71FB79032BEED9082200210A4808F0DCF9094B0022BA
S325080032B01A70094B00221A600848FFF777F800BF0837BD4680BD00BF880A0020A8D600088C
S325080032D0A80A0020B40A0020B00A0020FD34000880B586B000AF324B1B680133304A1360D2
S325080032F02F4B19682F4BA3FB01239A0813469B001344CA1A002A2ED12B4B1B780E2B04D861
S32508003310294B1B780133DBB200E00023264A1370254B1B783B6107F110031946002000F0B8
S3250800333047F8224A07F1080301321068186012791A7107F1080305211846FFF733FF034690
S32508003350FB75FB7D7B603B1D1946012000F030F80020FFF761FF124B1968124BA3FB012329
S32508003370DA0813469B0013445B00CA1A002A02D10120FFF751FF0A4B19680A4BA3FB012372
S32508003390DA0813469B0013445B00CA1A002A02D10320FFF741FF00BF1837BD4680BD00BF40
S325080033B0B80A0020CDCCCCCCB40A0020880A002080B584B000AF03463960FB71FB79162B31
S325080033D029D83B68002B26D0FA791346DB009B1A134A1344BB600023FB60BB681B79082B77
S325080033F003D83B681B78FB600AE0BB681B79102B03D83B681B88FB6002E03B681B68FB6088
S32508003410BB685B78DB00074A1344FA68B9681846FFF797FE00E000BF1037BD4680BD00BFC4
S3250800343004D60008880A002080B584B000AF03463960FB71FB79162B02D83B68002B01D145
S32508003450012327E0FA791346DB009B1A134A1344FB60FB685B78022B01D001231AE0F96805
S325080034700F48FFF787FEB860FB681B79082B04D8BB68DAB23B681A700BE0FB681B79102B45
S3250800349004D8BB689AB23B681A8002E03B68BA681A60002318461037BD4680BD04D600087B
S325080034B0A80A002080B582B000AF03463960FB710D4B1B68002B02D13B6800221A7002F09E
S325080034D053FC03461A46084B1B68D31AB3F5FA6F02D93B6802221A703B6801221A70012362
S325080034F018460837BD4680BDB00A002080B588B000AF78607B68002B3CD07B681B78022B46
S3250800351039D17B681B7A082B28BF0823FB777B685B68FA7F1946194808F01BF902F024FC57
S3250800353003461A46164B1A6016491448FFF722FEB86115491148FFF71DFE78610F4A07F10D
S325080035500C0392E8030018600433198002330A0C1A7007F10C0307211846FFF723FE0346B7
S32508003570FB74BB69DBB2FA7C9A4204D0044B00221A6000E000BF2037BD4680BDA80A0020F4
S32508003590B00A00204AD6000843D6000880B500AF1B4B1B78002B30D11A4B01221A701A4B6A
S325080035B001221A70194B01221A70194B00221A70184B00221A70184B01221A70174B00227C
S325080035D01A70174B00221A60164B00221A60164B00221A70154B00221A70154B00221A7023
S325080035F0144B00221A70144801F0EAFC134801F0F7FC034B01221A7000E000BF80BD00BF9A
S32508003610BC0A0020BD0A00200600002007000020BE0A0020BF0A002008000020C00A00208F
S32508003630C40A0020C80A0020CF0B0020CE0B0020D00B0020D30B002059370008E53E0008DD
S3250800365080B500AF0C4B1B78002B13D00B4B1B78012B10D00A4B1B6841F28732934205D805
S32508003670074B1B680A33064A136004E0012000F067FC00E000BF80BDBC0A00200600002017
S32508003690C40A002080B400AF034B1B781846BD465DF8047B704700BF0600002080B483B022
S325080036B000AF0346FB71FB79022B0BD0022B0CDC002B02D0012B02D007E0012306E0064BBA
S325080036D01B7803E0054B1B7800E0002318460C37BD465DF8047B7047BE0A0020BF0A002070
S325080036F080B483B000AF0346FB71044AFB79137000BF0C37BD465DF8047B704708000020E4
S3250800371080B483B000AF0346FB71FB79032B0ED0032B10DC002B02D0012B04D00BE0094BEA
S3250800373000221A7008E0074B01221A7004E0054B02221A7000E000BF00BF0C37BD465DF8FD
S32508003750047B7047C00A002080B5ADF50A7D00AF07F50A73A3F50A731960114607F50A7347
S32508003770A3F2212302461A7007F50A73A3F509730A461A80002387F81532CC4B1B78002B4B
S3250800379000F08E8307F50A73A3F50A731B68002B00F0868307F50A73A3F509731B88002B7A
S325080037B000F07E8307F50A73A3F221231B78012B03D1BF4B01221A7002E0BD4B00221A70C8
S325080037D007F50A73A3F509731B88002B00F06A8307F50A73A3F50A731B681B7887F8273217
S325080037F0B44A97F827321370B34B00221A70B34B00221A70B24B00221A80B24B00221A708C
S3250800381097F92732002B0CDAA94B01221A7097F8273203F07F0387F82732A64A97F82732E2
S32508003830137007F50A73A3F509731B88012B0DD907F50A73A3F50A731B6801331B7887F84E
S325080038501432A14A97F81432137006E0002387F814329D4A97F81432137000F09FFB97F89B
S3250800387027323E2B68DC102BC0F2F682103B2E2B00F2F28201A252F823F000BF5139000864
S3250800389097390008693E0008693E0008693E0008693E0008693E0008693E0008693E000869
S325080038B0693E0008693E0008693E0008693E0008693E0008693E0008693E0008693E000872
S325080038D0693E0008DD390008693E0008693E0008693E0008693E0008E53A0008C33B000814
S325080038F0693E0008693E0008693E0008693E0008693E0008093C0008693E0008693E000894
S32508003910E73C0008693E0008693E0008693E0008693E0008693E0008693E0008693E000895
S32508003930693E0008693E0008693E0008693E0008693E0008C53D0008852B00F05E828BE207
S32508003950624B02221A7007F50A73A3F50973198807F50A73A3F50A70594B5D4A006800F092
S3250800397029FB034687F81532584B01221A7097F81532002B03D0514B01221A7073E24E4B9B
S3250800399001221A706FE2514B02221A7007F50A73A3F50973198807F50A73A3F50A70484B75
S325080039B04B4A006800F06AFC034687F81532474B01221A7097F81532002B03D03F4B0122C7
S325080039D01A7050E23C4B01221A704CE207F50A73A3F5077307F50A72A2F509721288A3F861
S325080039F000210023A7F8243214E0B7F8243207F50A72A2F50A7212681A44B7F82432117886
S32508003A1007F50A72A2F50772D154B7F824320133A7F8243207F50A73A3F50973B7F824222B
S32508003A301B889A4203D2B7F82432FF2BDDD907F50A73A3F58C730022A3F80021234B0222AF
S32508003A501A7007F5887107F10C001E4B1C4A00F0D5FE034687F815321C4B01221A7097F881
S32508003A701532002B03D0154B01221A70FBE10023A7F822320FE0B7F82222B7F8223207F503
S32508003A900A71A1F58C71895C114AD154B7F822320133A7F822320A4B1B88B7F822229A42A4
S32508003AB0E9D3054B01221A70DDE100BFBC0A0020D00B0020D10B0020CF0B0020CE0B0020E2
S32508003AD0CC0B0020D30B0020D20B0020BD0A0020CC0A002007F50A73A3F5077307F50A72F6
S32508003AF0A2F509721288A3F800210023A7F8203214E0B7F8203207F50A72A2F50A72126832
S32508003B101A44B7F82032117807F50A72A2F50772D154B7F820320133A7F8203207F50A7353
S32508003B30A3F50973B7F820221B889A4203D2B7F82032FF2BDDD907F50A73A3F58C730022FB
S32508003B50A3F80021BE4B02221A7007F5887107F10C00BC4BBC4A00F0BFFF034687F8153211
S32508003B70B74B01221A7097F81532002B03D0B74B01221A7077E10023A7F81E320FE0B7F8ED
S32508003B901E22B7F81E3207F50A71A1F58C71895CAF4AD154B7F81E320133A7F81E32AA4BA4
S32508003BB01B88B7F81E229A42E9D3AA4B01221A7059E1A34B02221A7007F50A73A3F50973B8
S32508003BD0198807F50A73A3F50A709F4BA04A006800F090FA034687F81532994B01221A7045
S32508003BF097F81532002B03D0984B01221A703AE1984B01221A7036E107F50A73A3F50773F6
S32508003C1007F50A72A2F509721288A3F800210023A7F81C3214E0B7F81C3207F50A72A2F596
S32508003C300A7212681A44B7F81C32117807F50A72A2F50772D154B7F81C320133A7F81C32C1
S32508003C5007F50A73A3F50973B7F81C221B889A4203D2B7F81C32FF2BDDD907F50A73A3F58A
S32508003C708C730022A3F80021754B02221A7007F5887107F10C00734B734A00F0BFFE034671
S32508003C9087F815326E4B01221A7097F81532002B03D06E4B01221A70E5E00023A7F81A32CD
S32508003CB00FE0B7F81A22B7F81A3207F50A71A1F58C71895C664AD154B7F81A320133A7F87F
S32508003CD01A32614B1B88B7F81A229A42E9D3614B01221A70C7E007F50A73A3F5077307F521
S32508003CF00A72A2F509721288A3F800210023A7F8183214E0B7F8183207F50A72A2F50A723E
S32508003D1012681A44B7F81832117807F50A72A2F50772D154B7F818320133A7F8183207F56C
S32508003D300A73A3F50973B7F818221B889A4203D2B7F81832FF2BDDD907F50A73A3F58C73AE
S32508003D500022A3F800213E4B02221A7007F5887107F10C003B4B3C4A00F0CEFA034687F8AB
S32508003D701532374B01221A7097F81532002B03D0364B01221A7076E00023A7F816320FE05E
S32508003D90B7F81622B7F8163207F50A71A1F58C71895C2F4AD154B7F816320133A7F8163288
S32508003DB0294B1B88B7F816229A42E9D3294B01221A7058E0224B02221A7007F50A73A3F5CA
S32508003DD00973198807F50A73A3F50A701E4B204A006800F055F9034687F81532184B01220F
S32508003DF01A7097F81532002B03D0184B01221A7039E0184B01221A7035E0114B02221A70EF
S32508003E1007F50A73A3F50973198807F50A73A3F50A700D4B0E4A006800F0DEF9034687F824
S32508003E301532074B01221A7097F81532002B03D0064B01221A7016E0064B01221A7012E066
S32508003E50BD0A0020D30B0020CC0B0020CE0B0020CC0A0020CF0B0020174B11221A70174BFE
S32508003E7001221A7000BF164B1B78002B1CD1134B1B78002B08D0134B1B780F4A127811468D
S32508003E90184600F035F803E00F4B1B78002B0DD00E4B1B881A460E49002001F071F806E09E
S32508003EB000BF04E000BF02E000BF00E000BF07F50A77BD4680BD00BFD30B0020CE0B0020CF
S32508003ED0D00B0020D10B0020CF0B0020CC0B0020CC0A002080B483B000AF03460A46FB71CB
S32508003EF01346BB7100BF0C37BD465DF8047B704780B483B000AF03460A46FB711346BB71EF
S32508003F100B4B7F221A700A4AFB795370084ABB799370084B03221A80074B01221A70074B8B
S32508003F3000221A7000BF0C37BD465DF8047B7047CC0A0020CC0B0020CF0B0020CE0B002047
S32508003F5080B582B000AF0346FB71FB79013B022B01D9012313E000BF0B4B1A780B4B1A7023
S32508003F70094AFB7913700A4B00221A70094B00221A70094B00221A7000F010F8002318465F
S32508003F900837BD4680BD00BF0600002007000020BE0A0020BF0A0020C00A002080B400AFDA
S32508003FB0034B00221A6000BFBD465DF8047B7047C40A002080B586B000AFF8607A603B60D7
S32508003FD00B467B81FB68002B05D07B68002B02D03B68002B01D101234CE07B89012B04D837
S32508003FF0264B13221A70012344E0FB6801331B78BB75BB7D032B0CD0032B0DDC012B02D07A
S32508004010022B03D008E00123FB750AE00223FB7507E00323FB7504E0184B12221A700123E1
S3250800403028E0FB7D1846FFF78BFF03467B757B7D002B04D0114B22221A7001231AE07B68A9
S3250800405050221A707B680133BA7D1A707B68023300221A707B68033332221A707B68043399
S3250800407013221A707B68053388221A703B6806221A80002318461837BD4680BDD30B0020A1
S3250800409080B586B000AFF8607A603B600B467B81FB68002B05D07B68002B02D03B68002BBD
S325080040B001D1012320E07B89012B04D8104B13221A70012318E0FB6801331B78FB75FB7D98
S325080040D0002B04D00A4B12221A7001230CE0FFF765FF7B687E221A707B680133FA7D1A7021
S325080040F03B6802221A80002318461837BD4680BDD30B002080B586B000AFF8607A603B604C
S325080041100B467B81FB68002B05D07B68002B02D03B68002B04D12F4B31221A70012355E09E
S325080041307B89022B04D82B4B13221A7001234DE0FB6801331B78FB75FB6802331B78BB75D9
S32508004150FFF7A0FA03467B757B7D022B04D1214B22221A70012339E0FB7D012B02DC002B5A
S3250800417007DA01E0032B04D01A4B12221A7001232CE000BFBB7D013B022B04D9154B31221A
S325080041901A70012322E000BFFB7D032B0ED0032B10DC002B02D0012B04D00BE00020FFF7F6
S325080041B0AFFA08E00120FFF7ABFA04E00320FFF7A7FA00E000BF7B6868221A707B68013349
S325080041D0FA7D1A703B6802221A80002318461837BD4680BDD30B002080B586B000AFF860DF
S325080041F07A603B600B467B81FB68002B05D07B68002B02D03B68002B04D11F4B31221A70B2
S32508004210012335E07B89012B04D81B4B13221A7001232DE0FB6801331B78FB75FFF732FA29
S325080042300346BB75BB7D022B04D1134B22221A7001231DE0FB7D012B02D0022B04D007E002
S325080042500120FFF74DFA08E00020FFF749FA04E0094B12221A7001230AE07B68C5221A7049
S325080042707B680133FA7D1A703B6802221A80002318461837BD4680BDD30B002080B487B02E
S3250800429000AFF8607A603B600B467B81FB68002B05D07B68002B02D03B68002B04D1154BF1
S325080042B031221A7001231FE07B89012B04D8114B13221A70012317E0FB6801331B78FB7504
S325080042D0FB7D012B04D00B4B12221A7001230BE000BF7B6851221A707B680133FA7D1A706E
S325080042F03B6802221A80002318461C37BD465DF8047B7047D30B002090B5CBB002AF07F572
S325080043109074A4F58A74206007F59070A0F58C70016007F59071A1F58E710A6007F590727C
S32508004330A2F590721360002387F81F310023A7F8163107F59073A3F58A731B68002B14D032
S3250800435007F59073A3F58C731B68002B0DD007F59073A3F58E731B68002B06D007F5907303
S32508004370A3F590731B68002B01D1012311E107F59073A3F58A731B68B3F80031032B08D8ED
S3250800439007F59073A3F590731B6813221A700123FFE007F59073A3F58A731B685B7887F8B7
S325080043B01B3107F59073A3F58A731B689B781BB21B021AB207F59073A3F58A731B68DB7849
S325080043D01BB213431BB2A7F8183107F59073A3F58C731B6871221A7007F59073A3F58C731B
S325080043F01B6897F81B215A70B7F818311B0A9BB2DAB207F59073A3F58C731B689A70B7F8BF
S325080044101831DAB207F59073A3F58C731B68DA70B7F8183140F20332934261D0B3F5417F79
S325080044307EDA40F2032293423AD0B3F5017F77DA40F20122934204D040F20222934220D03E
S325080044506EE007F59073A3F58A731B68181D07F59073A3F58A731B68B3F80031043B99B227
S3250800447007F58B7407F1140207F59073A3F590731B680093234600F091F8034687F81F316B
S3250800449057E007F59073A3F5907307F58B7107F114001A6800F0F4F8034687F81F3148E08B
S325080044B007F59073A3F58A731B68181D07F59073A3F58A731B68B3F80031043B99B207F519
S325080044D08B7407F1140207F59073A3F590731B680093234600F004F9034687F81F3128E08B
S325080044F007F59073A3F58A731B68181D07F59073A3F58A731B68B3F80031043B99B207F5D9
S325080045108B7407F1140207F59073A3F590731B680093234600F02CF9034687F81F3108E042
S3250800453007F59073A3F590731B6812221A7001232FE097F81F31002B01D0012329E0002324
S32508004550A7F81C3114E0B7F81C21B7F81C31043307F59071A1F58671895C07F59072A2F53A
S325080045708C721268D154B7F81C310133A7F81C31B7F81631B7F81C219A42E4D3B7F81631F9
S3250800459004339AB207F59073A3F58E731B681A800023184607F59277BD4690BD80B489B082
S325080045B000AFF8607A603B600B467B81FB68002B08D07B68002B05D03B68002B02D0BB6A06
S325080045D0002B01D1012352E07B89072B04D8BB6A13221A7001234AE0FB681B781A06FB68AD
S325080045F001331B781B041A43FB6802331B781B021343FA68033212781343FB61FB6804334F
S325080046101B781A06FB6805331B781B041A43FB6806331B781B021343FA6807321278134302
S32508004630BB61FB69154A934205D9FA69BB691344B3F1016F0AD3BB6A31221A707B680122F3
S325080046501A703B6801221A80012310E0FB7D002B03D17B6800221A7005E07B6801221A70C3
S32508004670BB6A72221A703B6801221A80FB7D18462437BD465DF8047B704700BFFFFF0008F5
S3250800469080B487B000AFF860B9607A600023FB75FB68002B05D0BB68002B02D07B68002B73
S325080046B001D1012316E0BB8A592B02D80123FB7504E0BB8AA02B01D90223FB75FB7C502B64
S325080046D001D90423FB75FB68FA7D1A70BB6801221A80002318461C37BD465DF8047B7047A5
S325080046F080B487B000AFF8607A603B600B467B81FB68002B08D07B68002B05D03B68002B51
S3250800471002D03B6A002B01D101232BE07B89032B04D83B6A13221A70012323E0FB681B7849
S325080047301A06FB6801331B781B041A43FB6802331B781B021343FA680332127813437B61A4
S325080047507A693B699A4203D17B6800221A7005E07B6801221A703B6A72221A703B68012277
S325080047701A80002318461C37BD465DF8047B704780B487B000AFF8607A603B600B467B81EB
S32508004790FB68002B08D07B68002B05D03B68002B02D03B6A002B01D1012329E07B89002B14
S325080047B004D13B6A13221A70012321E0FB681B78FB75FB7D012B0AD93B6A31221A707B682B
S325080047D002221A703B6801221A80012310E0BB7D002B03D17B6800221A7005E07B680122E8
S325080047F01A703B6A72221A703B6801221A80BB7D18461C37BD465DF8047B704790B5C9B0B9
S3250800481000AF07F59074A4F58A74206007F59070A0F58C70016007F59071A1F58E710A60CA
S3250800483007F59072A2F590721360002387F819310123A7F81E310123A7F81C3107F5907343
S32508004850A3F58A731B68B3F80031A7F8163107F59073A3F58A731B68002B14D007F590733B
S32508004870A3F58C731B68002B0DD007F59073A3F58E731B68002B06D007F59073A3F5907342
S325080048901B68002B01D10123B3E0B7F81631022B08D807F59073A3F590731B6813221A70E4
S325080048B00123A6E007F59073A3F58C731B6862221A708EE0B7F81E3107F59072A2F58A720C
S325080048D01268D35C1BB21B021AB2B7F81E31013307F59071A1F58A710968CB5C1BB21343E0
S325080048F01BB2A7F81431B7F81E310233A7F81E3107F5897207F11001B7F81431184600F086
S3250800491005FA034687F8193197F81931002B08D007F59073A3F590731B6831221A7001236E
S3250800493067E0B7F81C31B7F8122113440233B3F5807F08D907F59073A3F590731B681422CD
S325080049501A70012355E0B7F814311B0A9AB2B7F81C31D1B207F59072A2F58C721268D15440
S32508004970B7F81C310133B7F81421D1B207F59072A2F58C721268D154B7F81C310233A7F880
S325080049901C310023A7F81A3116E0B7F81A21B7F81C11B7F81A310B4407F59071A1F588710E
S325080049B0895C07F59072A2F58C721268D154B7F81A310133A7F81A31B7F81231B7F81A21CE
S325080049D09A42E2D3B7F81221B7F81C311344A7F81C31B7F81E21B7F816319A42FFF46AAF3B
S325080049F007F59073A3F58E731B68B7F81C211A800023184607F59277BD4690BD80B588B0B5
S32508004A1000AFF860B9607A603B600023FB770123BB8301237B83FB68B3F800313B83FB686A
S32508004A30002B08D0BB68002B05D07B68002B02D03B68002B01D101234AE03B8B032B04D894
S32508004A503B6813221A70012342E00120FEF726FE0346002B04D13B6833221A70012337E050
S32508004A70BB686E221A70BB8BFA68D35C1BB21B021AB2BB8B0133F968CB5C1BB213431BB25C
S32508004A90FB82BB8B0233BB833A8BBB8BD31ABB82BB8BFA68D118BA8AFB8A184600F0B8F934
S32508004AB00346FB77FB7F002B04D03B6872221A7001230DE0FB8A1B0A9BB2DAB2BB685A7062
S32508004AD0FB8ADAB2BB689A707B6803221A80002318462037BD4680BD80B586B000AFF8604E
S32508004AF0B9607A603B600023FB75FB68002B08D0BB68002B05D07B68002B02D03B68002B40
S32508004B1001D1012377E0FB68B3F80031012B04D83B6813221A7001236DE0BB6867221A70DA
S32508004B30FB685B78BB75BB7D013B072B1ED801A252F823F0654B0008654B00086B4B000827
S32508004B506B4B0008714B0008714B0008774B0008774B000801237B750DE002237B750AE05D
S32508004B7003237B7507E004237B7504E03B6812221A7001233FE0BB7D03F00103002B17D03A
S32508004B90BB6802333A687968184600F039F80346FB75FB7D002B01D001232CE0BB68BA7DE6
S32508004BB05A707B681B8802339AB27B681A8021E0FB68B3F80031052B04D83B6813221A70DB
S32508004BD0012318E0FB68981CFB68B3F80031023B9BB23A68194600F043F80346FB75FB7D5E
S32508004BF0002B01D0012306E0BB68BA7D5A707B6802221A80002318461837BD4680BD00BFFD
S32508004C1080B586B000AFF860B9607A60FB68002B05D0BB68002B02D07B68002B01D101238A
S32508004C3017E004210D4800F035F90023FB7509E0FA7DFB7DF9680B4408498A5C1A70FB7D73
S32508004C500133FB75FB7D032BF2D9BB6804221A80002318461837BD4680BD00BFD40B002070
S32508004C7080B586B000AFF8600B467A607B81FB68002B02D07B68002B01D101233CE07B89F9
S32508004C90042B04D07B6835221A70012334E004211B4800F031F97861FB681B781A06FB6803
S32508004CB001331B781B041A43FB6802331B781B021343FA680332127813433B617A693B695B
S32508004CD09A4212D00F4B1B6801330E4A13600D4B1B68022B04D97B6836221A7001230BE063
S32508004CF07B6835221A70012306E0074B01221A70044B00221A60002318461837BD4680BDCE
S32508004D10D40B0020D80B0020DC0B002080B487B000AF0346B9607A60FB810023FB75BB68E4
S32508004D30002B02D07B68002B01D1012369E0FB894FF29512934231DC4FF2831293425CDBDB
S32508004D50A3F57143833B122B57D801A252F823F0C74D00080B4E00080B4E0008FD4D00088F
S32508004D700B4E00080B4E00080B4E0008DF4D00080B4E0008BF4D00080B4E00080B4E000887
S32508004D900B4E0008B74D00080B4E00080B4E00080B4E00080B4E0008CF4D00084FF201524C
S32508004DB0934210D029E07B6811221A8028E07B6820221A8024E07B6810221A8020E07B680A
S32508004DD008221A801CE07B6802221A8018E0BB6853221A70BB68013354221A70BB6802338B
S32508004DF020221A707B6803221A8009E0BB6801221A707B6801221A8002E00123FB7500BF99
S32508004E10FB7D18461C37BD465DF8047B704700BF80B485B000AF03463960FB801346BB80F5
S32508004E300023FB733B68002B01D101232BE0FB884FF20152934217D04FF20152934219DCC3
S32508004E504FF28C12934209D04FF29012934211D1BB88112B11D00123FB730EE0BB88202B9F
S32508004E700DD90123FB730AE0BB88022B09D00123FB7306E00123FB7304E000BF02E000BF1B
S32508004E9000E000BFFB7B18461437BD465DF8047B7047000080B485B000AF78600B467B806C
S32508004EB00023FB6000237B8118E0FB68114A02FB03F303F54053393323F00043FB607B89E2
S32508004ED003F00303DB00FA6822FA03F17B897A681344CAB21A707B8901337B817A897B88F1
S32508004EF09A42E2D300BF00BF1437BD465DF8047B704700BF6D4EC64180B485B000AF78603B
S32508004F100B467B800023FB6000237B8111E07B897A6813441B781A467B8903F00303DB0091
S32508004F3002FA03F31A46FB685340FB607B8901337B817A897B889A42E9D3FA68044B53409A
S32508004F50FB60FB6818461437BD465DF8047B70477856341280B500AFFDF7BCFA0348FDF75D
S32508004F704BFC0348FDF758FC00BF80BD115000086D50000880B500AFFDF786FB00BF80BDBA
S32508004F9080B584B000AF03463960FB711346BB80FB79002B02D0012B0BD00CE00023FB7304
S32508004FB000BFBA88FB7B39681846FDF7C9FA034602E0002300E0012318461037BD4680BD6F
S32508004FD080B483B000AF7860044A7B68136000BF0C37BD465DF8047B704700BFE00B0020C7
S32508004FF080B483B000AF7860044A7B68136000BF0C37BD465DF8047B704700BFE40B0020A3
S3250800501080B584B000AF03463960FB713B68002B1CD03B681B68002B1AD0FB79002B02D0A6
S32508005030012B03D015E00023FB7302E00123FB7300BF094B1B68002B0BD0074B1B683A6846
S3250800505011683A689288F87B984702E000BF00E000BF1037BD4680BDE00B002080B584B070
S3250800507000AF03460A46FB711346BB71FB79002B02D0012B03D00FE00023FB7302E00123E3
S32508005090FB7300BF064B1B68002B05D0044B1B68B979FA7B104698471037BD4680BD00BFFD
S325080050B0E40B002080B584B000AF78607B68002B01D10123D8E07B681B79012B01D9012376
S325080050D0D2E07B681B79FB73FB7B694A4FF4C36101FB03F3134403331B78002B11D0FB7BF7
S325080050F0002B01D1634B00E0634B184601F066F8FB7B5F4A4FF4C36101FB03F313440122BA
S325080051101A70FB7B5A4A4FF4C36101FB03F3134401221A70FB7B564A4FF4C36101FB03F301
S325080051301344013300221A70FB7B514A4FF4C36101FB03F31344023300221A70FB7B4C4A6C
S325080051504FF4C36101FB03F31344033300221A70FB7B474A4FF4C36101FB03F3134403F2F3
S32508005170146300221A60FB7B414A4FF4C36101FB03F3134403F2044300221A80FB7B3C4A59
S325080051904FF4C36101FB03F3134403F2064300221A80FB7B364A4FF4C36101FB03F31344A1
S325080051B003F5816300221A80FB7B314A4FF4C36101FB03F3134403F20C6300221A80FB7B02
S325080051D02B4A4FF4C36101FB03F3134403F20E6300221A80FB7B264A4FF4C36101FB03F32B
S325080051F0134403F5C26300221A80FB7B184600F09DFAFB7B002B01D11E4B00E01E4B184683
S3250800521000F098FF0346002B01D001232CE0FB7B002B01D1174B00E0174B0221184601F0EB
S3250800523008FA0346002B01D001231DE0FB7B002B01D1104B00E0104B0121184601F0F9F97C
S32508005250FB7B0B4A4FF4C36101FB03F3134402221A70FB7B064A4FF4C36101FB03F3134491
S32508005270033301221A70002318461037BD4680BDE80B0020200200204802002080B584B0FD
S3250800529000AF03463960FB71FB79012B0DD83B68002B0AD0FB79224A4FF4C36101FB03F38D
S325080052B0134403331B78002B01D1012334E0FB794FF4C36202FB03F303F58163184A134417
S325080052D00433FB60FB68B3F804321F2B01D9012322E0FB68B3F800321B01FA681344102249
S325080052F03968184606F035FAFB68B3F8003201339BB203F01F039AB2FB68A3F8002272B602
S3250800531000BFFB68B3F8043201339AB2FB68A3F8042262B600BF002318461037BD4680BDE9
S32508005330E80B002080B483B000AF7860044A7B68136000BF0C37BD465DF8047B704700BF5B
S325080053501818002080B592B000AF78607B687B647B6C1B68384A934214BF01230023DBB2B7
S3250800537087F8433007F1180307F120020021786C01F03DF80346002B5AD13B6ABB603B6BC0
S32508005390DBB23B73BB6A002B14BF01230023DBB27B75FB6A002B14BF01230023DBB2BB7566
S325080053B03B6B082B28BF08231A4607F1180107F108030533184606F0CCF997F843304FF4DA
S325080053D0C36202FB03F31D4A13440433FB63FB6BB3F804343F2B1ED8FB6BB3F800341B013A
S325080053F0FA6B134407F108011022184606F0B1F9FB6BB3F8003401339BB203F03F039AB25B
S32508005410FB6BA3F80024FB6BB3F8043401339AB2FB6BA3F804240A4B1B68002B09D0084B28
S325080054301B6807F1080197F843201046984700E000BF4837BD4680BD00640040E80B00208E
S325080054501818002080B483B000AF786000BF0C37BD465DF8047B704780B487B000AF78606E
S325080054707B687B617B691B68264A934214BF01230023DBB2FB747B691B689B69FB60FB6864
S325080054901A0CFB7CD0B2204A4FF4C36101FB03F31344013302461A70FB681A0EFB7CD0B22B
S325080054B0194A4FF4C36101FB03F31344023302461A70FB6803F00403002B1CD0FB7C124A6D
S325080054D04FF4C36101FB03F3134404221A70FB7C0D494FF4C36203FB02F20A4402F214626F
S325080054F01268013208494FF4C36000FB03F30B4403F214631A6000BF1C37BD465DF8047B1B
S32508005510704700BF00640040E80B002080B590B000AF002387F83F30A3E097F83F30564AEA
S325080055304FF4C36101FB03F3134403331B78002B00F08F8097F83F304F4A4FF4C36101FBB0
S3250800555003F313441B78022B40F0838097F83F304FF4C36202FB03F303F58163464A1344D1
S325080055700433BB63BB6BB3F80432002B73D072B600BFBB6BB3F802321B01BA6BD11807F135
S3250800559024031022184606F0E4F8BB6BB3F8023201339BB203F01F039AB2BB6BA3F8022298
S325080055B0BB6BB3F80432013B9AB2BB6BA3F8042262B600BF97F83F30002B01D12F4B00E02B
S325080055D02F4B7B6397F83130002B04D17B6AFB6000237B6103E07B6A3B6104237B6197F830
S325080055F03230002B01D1002300E00223BB6197F82830082B28BF0823DBB2FB61002387F833
S325080056102030FA6907F12403591D3B1D184606F0A0F83B463A1D07F10C01786B00F017FE1B
S325080056300346002B18D097F83F3013494FF4C36203FB02F20A44013212780132D0B20E4A24
S325080056504FF4C36101FB03F31344013302461A7002E000BF00E000BF97F83F30013387F885
S325080056703F3097F83F30012B7FF657AF00BF00BF4037BD4680BD00BFE80B002020020020AF
S325080056904802002080B582B000AF0023FB713FE0FB79234A4FF4C36101FB03F313441B789A
S325080056B0042B31D1FB79002B01D11E4B00E01E4B3B60386801F0EAF9386800F03BFD034658
S325080056D0002B22D1FB79164A4FF4C36101FB03F3134402221A70FB79114A4FF4C36101FB2A
S325080056F003F31344013300221A70FB790C4A4FF4C36101FB03F31344023300221A700221E1
S32508005710386800F096FF00E000BFFB790133FB71FB79012BBCD900BF00BF0837BD4680BD61
S32508005730E80B0020200200204802002080B58EB000AF0346FB71FB79002B01D1134B00E006
S32508005750134B7B63FB79002B01D1002300E00E233B6200237B620123BB620023FB600023CB
S325080057703B6100237B610023BB610023FB610123FB620E233B6307F10C031946786B00F029
S32508005790FBFB00BF3837BD4680BD00BF200200204802002080B582B000AF78607868FFF758
S325080057B0D1FD00BF0837BD4680BD80B582B000AF78607868FFF746FE00BF0837BD4680BD79
S325080057D080B582B000AF78607868FFF73BFE00BF0837BD4680BD80B582B000AF78607868A2
S325080057F0FFF730FE00BF0837BD4680BD80B582B000AF78607868FFF72FFE00BF0837BD4637
S3250800581080BD80B400AF00BFBD465DF8047B704780B584B000AF0346FB71FB79072B01D9B0
S32508005830002314E0FB790C4A52F83320FB790A49DB000B449B881946104601F08BFC034642
S32508005850FB73FB7B012B0CBF01230023DBB218461037BD4680BD00BFACD6000880B586B0E2
S3250800587000AF78600B46FB700023FB7563E0FA7D13465B0013445B001A467B6813441B78E7
S32508005890FB73FB7B002B02D100233B6104E0FB7B012B4CD104233B613B69002B0CD1FA7DC0
S325080058B013465B0013445B001A467B6813445A88284B1B685A632EE03B69042B0DD1FA7DFF
S325080058D013465B0013445B001A467B6813445988204B1A680B4693631DE03B69082B0DD1E3
S325080058F0FA7D13465B0013445B001A467B6813445988184B1A680B46D3630CE0FA7D13460A
S325080059105B0013445B001A467B6813445988114B1A680B46136439690E4803F06BFA0346A2
S32508005930002B05D1FB7B0C4A0221D15400E000BFFB7D0133FB75FA7DFB789A4297D3002227
S325080059504FF48041054801F01DFC002318461837BD4680BDF80200201C180020000C024002
S3250800597080B485B000AF03460A46FB711346BB71FB79002B02D10023FB6004E0FB79012BF3
S325080059902DD10423FB60BB79642B01D96423BB71BB7940F2E73202FB03F3144AA2FB032386
S325080059B05B09BB60FB68002B04D1114B1B68BA685A6315E0FB68042B04D10D4B1A68BB68D0
S325080059D093630DE0FB68082B04D1094B1A68BB68D36305E0064B1A68BB68136400E000BF3B
S325080059F01437BD465DF8047B704700BF1F85EB51F802002080B500AF00220121024801F094
S32508005A10C1FB00BF80BD00BF0004024080B500AF01220121024801F0B5FB00BF80BD00BFDC
S32508005A300004024080B582B000AF0346FB71F91D64230122064802F044FC0346002B14BFB0
S32508005A5001230023DBB218460837BD4680BD00BFA002002080B582B000AFFF23FB71FFF75C
S32508005A70C9FF0520FFF7DEFFF91D64230122054802F06BFDFFF7CAFFFB7918460837BD460E
S32508005A9080BD00BFA002002080B582B000AF094B00221A70FFF7BAFF00F010F878607B68B2
S32508005AB0054A934201D1002300E0012318460837BD4680BD1E1800201540EF0080B582B0CD
S32508005AD000AF3B1D00210A461A800A469A70FFF791FF9F20FFF7A6FF391D6423032208480A
S32508005AF002F033FDFFF792FF3B791A047B791B021343BA79134318460837BD4680BD00BF81
S32508005B10A002002080B500AF074B1B78002B09D0FFF7A0FF034603F00103002B02D1024BB8
S32508005B3000221A7000BF80BD1E18002080B400AF034B02221A7000BFBD465DF8047B70471D
S32508005B501F18002080B582B000AF0346FB71FB7919460020FFF704FF00BF0837BD4680BDDB
S32508005B7080B582B000AF78607B68002B01D1012304E079681020FDF757FC034618460837F3
S32508005B90BD4680BD80B582B000AF78607B68002B01D1012304E079680B20FDF745FC034647
S32508005BB018460837BD4680BD80B582B000AF78607B68002B01D1012304E079681020FDF70F
S32508005BD071FC034618460837BD4680BD80B582B000AF0346FB71FB1D19460220FDF7E8FBD9
S32508005BF0002318460837BD4680BD80B582B000AF0346FB71FB1D19460320FDF7D9FB002337
S32508005C1018460837BD4680BD80B582B000AF0346FB71FB1D19460620FDF7CAFB00231846E7
S32508005C300837BD4680BD80B500AF0120FFF7F0FD0346184680BD80B500AF0220FFF7E8FD1A
S32508005C500346184680BD0000DFF834D0FCF7FCF90C480D490D4A002302E0D458C450043302
S32508005C70C4188C42F9D30A4A0A4C002301E013600432A242FBD305F045FDFBF77FFA70472E
S32508005C900000022000000020DC01002074DA0008DC01002070190020FEE7000080B500AFE2
S32508005CB00E4B1B680D4A43F4007313600B4B1B680A4A43F480631360084B1B68074A43F45E
S32508005CD080731360032000F0D5FF0F2000F008F8FBF702FE0023184680BD00BF003C02404D
S32508005CF080B582B000AF7860124B1A68124B1B7819464FF47A73B3FBF1F3B2FBF3F31846B7
S32508005D1000F0EDFF0346002B01D001230EE07B680F2B0AD8002279684FF0FF3000F0B5FF1E
S32508005D30064A7B681360002300E0012318460837BD4680BD00000020100000200C0000201F
S32508005D5080B400AF064B1B781A46064B1B681344044A136000BFBD465DF8047B704700BF06
S32508005D70100000202018002080B400AF034B1B681846BD465DF8047B704700BF20180020C6
S32508005D9080B584B000AF78607B68002B01D10123EDE07B6893F82030DBB2002B02D17868FB
S32508005DB0FBF7C2FD7B681B681A687B681B6842F001021A60FFF7D8FFF86012E0FFF7D4FF37
S32508005DD00246FB68D31A0A2B0BD97B685B6A43F400327B685A627B68052283F8202001235B
S32508005DF0C5E07B681B685B6803F00103002BE5D07B681B681A687B681B6822F002021A6002
S32508005E10FFF7B2FFF86012E0FFF7AEFF0246FB68D31A0A2B0BD97B685B6A43F400327B682B
S32508005E305A627B68052283F8202001239FE07B681B685B6803F00203002BE5D17B681B7EA2
S32508005E50012B08D17B681B681A687B681B6842F080021A6007E07B681B681A687B681B686E
S32508005E7022F080021A607B685B7E012B08D17B681B681A687B681B6842F040021A6007E012
S32508005E907B681B681A687B681B6822F040021A607B689B7E012B08D17B681B681A687B68FC
S32508005EB01B6842F020021A6007E07B681B681A687B681B6822F020021A607B68DB7E012B28
S32508005ED008D17B681B681A687B681B6822F010021A6007E07B681B681A687B681B6842F078
S32508005EF010021A607B681B7F012B08D17B681B681A687B681B6842F008021A6007E07B68A8
S32508005F101B681A687B681B6822F008021A607B685B7F012B08D17B681B681A687B681B6852
S32508005F3042F004021A6007E07B681B681A687B681B6822F004021A607B689A687B68DB68BF
S32508005F501A437B681B691A437B685B6942EA03017B685B685A1E7B681B680A43DA617B683C
S32508005F7000225A627B68012283F82020002318461037BD4680BD000080B487B000AF78606A
S32508005F9039607B6893F82030FB75FB7D012B03D0FB7D022B40F0BE80654B3B613B69D3F8D7
S32508005FB0003243F001023B69C3F800223B69D3F8003223F47C523B69C3F800223B69D3F864
S32508005FD000223B685B6A1B021A433B69C3F800223B685B6903F01F03012202FA03F3FB6032
S32508005FF03B69D3F81C22FB68DB431A403B69C3F81C223B68DB69002B23D13B69D3F80C22BB
S32508006010FB68DB431A403B69C3F80C223B68DB6819043B685B689BB23A68526919433B69E7
S32508006030483243F832103B689B6819043B681B689AB23B685B690A4339694833DB000B441B
S325080060505A603B68DB69012B22D13B69D3F80C22FB681A433B69C3F80C223B681B68190435
S325080060703B685B689BB23A68526919433B69483243F832103B689B6819043B68DB689AB206
S325080060903B685B690A4339694833DB000B445A603B689B69002B09D13B69D3F80422FB6889
S325080060B0DB431A403B69C3F8042207E03B69D3F80422FB681A433B69C3F804223B681B69DD
S325080060D0002B09D13B69D3F81422FB68DB431A403B69C3F8142207E03B69D3F81422FB6899
S325080060F01A433B69C3F814223B681B6A012B07D13B69D3F81C22FB681A433B69C3F81C225A
S325080061103B69D3F8003223F001023B69C3F80022002306E07B685B6A43F480227B685A6200
S32508006130012318461C37BD465DF8047B704700BF0064004080B584B000AF78607B6893F81D
S325080061502030DBB2012B2ED17B68022283F820207B681B681A687B681B6822F001021A607A
S32508006170FFF702FEF86012E0FFF7FEFD0246FB68D31A0A2B0BD97B685B6A43F400327B682B
S325080061905A627B68052283F82020012312E07B681B685B6803F00103002BE5D17B68002244
S325080061B05A62002306E07B685B6A43F400227B685A62012318461037BD4680BD80B584B0EA
S325080061D000AF78607B6893F82030DBB2022B33D17B681B681A687B681B6842F001021A60A1
S325080061F0FFF7C2FDF86012E0FFF7BEFD0246FB68D31A0A2B0BD97B685B6A43F400327B682C
S325080062105A627B68052283F8202001231BE07B681B685B6803F00103002BE5D07B681B685A
S325080062301A687B681B6822F002021A607B68012283F82020002306E07B685B6A43F480128D
S325080062507B685A62012318461037BD4680BD80B489B000AFF860B9607A603B60FB6893F888
S325080062702030FB77FB681B689B68BB61FB7F012B03D0FB7F022B40F0AD80BB6903F08063C2
S32508006290002B0AD1BB6903F00063002B05D1BB6903F08053002B00F09580BB691B0E03F005
S325080062B003037B6101227B699A403B681A60BB689B68002B0DD1BB681B685A05BB68DB6846
S325080062D0F96809681A437B6918331B010B441A600FE0BB685B68DA00BB689B681A43BB6808
S325080062F0DB68F96809681A437B6918331B010B441A60FB681968BB681A697B6918331B0125
S325080063100B4404331A60BB681B7D012B11D1FB681A687B6918331B01134404331B68FA68F3
S32508006330116843F480727B6918331B010B4404331A607B6807331B781A067B6806331B78D3
S325080063501B041A437B6805331B781B0213437A68043212781046FA68116843EA00027B699C
S325080063701B010B4403F5C6731A607B6803331B781A067B6802331B781B041A437B680133DF
S325080063901B781B0213437A6812781046FA68116843EA00027B691B010B4403F5C4731A6015
S325080063B0FB681A687B6918331B0113441B68FA68116843F001027B6918331B010B441A6090
S325080063D000230EE0FB685B6A43F40012FB685A62012306E0FB685B6A43F48022FB685A62D4
S325080063F0012318462437BD465DF8047B704780B487B000AFF860B9607A603B60FB6893F826
S325080064102030FB75FB7D012B03D0FB7D022B40F00381BB68002B0ED1FB681B68DB6803F085
S325080064300303002B16D1FB685B6A43F40012FB685A620123F7E0FB681B681B6903F0030338
S32508006450002B07D1FB685B6A43F40012FB685A620123E8E0FB681A68BB681B331B011344D6
S325080064701B6803F004027B689A607B689B68002B0CD1FB681A68BB681B331B0113441B686B
S325080064905B0DC3F30A027B681A600BE0FB681A68BB681B331B0113441B68DB0823F0604288
S325080064B07B685A60FB681A68BB681B331B0113441B6803F002027B68DA60FB681A68BB68B9
S325080064D01B331B01134404331B6803F00803002B03D07B6808221A610BE0FB681A68BB68AC
S325080064F01B331B01134404331B6803F00F027B681A61FB681A68BB681B331B0113440433A1
S325080065101B681B0ADAB27B689A61FB681A68BB681B331B01134404331B681B0C9AB27B6872
